{
	"step_11_Struct/Struct.sol": {
		"Employees": {
			"abi": [
				{
					"inputs": [
						{
							"internalType": "uint256",
							"name": "_id",
							"type": "uint256"
						},
						{
							"internalType": "string",
							"name": "_name",
							"type": "string"
						},
						{
							"internalType": "string",
							"name": "_gender",
							"type": "string"
						}
					],
					"stateMutability": "nonpayable",
					"type": "constructor"
				},
				{
					"inputs": [],
					"name": "emp",
					"outputs": [
						{
							"internalType": "uint256",
							"name": "id",
							"type": "uint256"
						},
						{
							"internalType": "string",
							"name": "name",
							"type": "string"
						},
						{
							"internalType": "string",
							"name": "gender",
							"type": "string"
						}
					],
					"stateMutability": "view",
					"type": "function"
				},
				{
					"inputs": [
						{
							"internalType": "uint256",
							"name": "_id",
							"type": "uint256"
						},
						{
							"internalType": "string",
							"name": "_name",
							"type": "string"
						},
						{
							"internalType": "string",
							"name": "_gender",
							"type": "string"
						}
					],
					"name": "setEmployee",
					"outputs": [],
					"stateMutability": "nonpayable",
					"type": "function"
				}
			],
			"devdoc": {
				"kind": "dev",
				"methods": {},
				"version": 1
			},
			"evm": {
				"assembly": "    /* \"step_11_Struct/Struct.sol\":140:584  contract Employees{... */\n  mstore(0x40, 0x80)\n    /* \"step_11_Struct/Struct.sol\":190:340  constructor(uint _id, string memory _name, string memory _gender){... */\n  callvalue\n  dup1\n  iszero\n  tag_1\n  jumpi\n  0x00\n  dup1\n  revert\ntag_1:\n  pop\n  mload(0x40)\n  sub(codesize, bytecodeSize)\n  dup1\n  bytecodeSize\n  dup4\n  codecopy\n  dup2\n  dup2\n  add\n  0x40\n  mstore\n  dup2\n  add\n  swap1\n  tag_2\n  swap2\n  swap1\n  tag_3\n  jump\t// in\ntag_2:\n    /* \"step_11_Struct/Struct.sol\":274:277  _id */\n  dup3\n    /* \"step_11_Struct/Struct.sol\":265:268  emp */\n  0x00\n    /* \"step_11_Struct/Struct.sol\":265:271  emp.id */\n  dup1\n  add\n    /* \"step_11_Struct/Struct.sol\":265:277  emp.id = _id */\n  dup2\n  swap1\n  sstore\n  pop\n    /* \"step_11_Struct/Struct.sol\":298:303  _name */\n  dup2\n    /* \"step_11_Struct/Struct.sol\":287:290  emp */\n  0x00\n    /* \"step_11_Struct/Struct.sol\":287:295  emp.name */\n  0x01\n  add\n    /* \"step_11_Struct/Struct.sol\":287:303  emp.name = _name */\n  swap1\n  dup2\n  tag_6\n  swap2\n  swap1\n  tag_7\n  jump\t// in\ntag_6:\n  pop\n    /* \"step_11_Struct/Struct.sol\":326:333  _gender */\n  dup1\n    /* \"step_11_Struct/Struct.sol\":313:316  emp */\n  0x00\n    /* \"step_11_Struct/Struct.sol\":313:323  emp.gender */\n  0x02\n  add\n    /* \"step_11_Struct/Struct.sol\":313:333  emp.gender = _gender */\n  swap1\n  dup2\n  tag_8\n  swap2\n  swap1\n  tag_7\n  jump\t// in\ntag_8:\n  pop\n    /* \"step_11_Struct/Struct.sol\":190:340  constructor(uint _id, string memory _name, string memory _gender){... */\n  pop\n  pop\n  pop\n    /* \"step_11_Struct/Struct.sol\":140:584  contract Employees{... */\n  jump(tag_9)\n    /* \"#utility.yul\":7:82   */\ntag_10:\n    /* \"#utility.yul\":40:46   */\n  0x00\n    /* \"#utility.yul\":73:75   */\n  0x40\n    /* \"#utility.yul\":67:76   */\n  mload\n    /* \"#utility.yul\":57:76   */\n  swap1\n  pop\n    /* \"#utility.yul\":7:82   */\n  swap1\n  jump\t// out\n    /* \"#utility.yul\":88:205   */\ntag_11:\n    /* \"#utility.yul\":197:198   */\n  0x00\n    /* \"#utility.yul\":194:195   */\n  dup1\n    /* \"#utility.yul\":187:199   */\n  revert\n    /* \"#utility.yul\":211:328   */\ntag_12:\n    /* \"#utility.yul\":320:321   */\n  0x00\n    /* \"#utility.yul\":317:318   */\n  dup1\n    /* \"#utility.yul\":310:322   */\n  revert\n    /* \"#utility.yul\":334:411   */\ntag_13:\n    /* \"#utility.yul\":371:378   */\n  0x00\n    /* \"#utility.yul\":400:405   */\n  dup2\n    /* \"#utility.yul\":389:405   */\n  swap1\n  pop\n    /* \"#utility.yul\":334:411   */\n  swap2\n  swap1\n  pop\n  jump\t// out\n    /* \"#utility.yul\":417:539   */\ntag_14:\n    /* \"#utility.yul\":490:514   */\n  tag_50\n    /* \"#utility.yul\":508:513   */\n  dup2\n    /* \"#utility.yul\":490:514   */\n  tag_13\n  jump\t// in\ntag_50:\n    /* \"#utility.yul\":483:488   */\n  dup2\n    /* \"#utility.yul\":480:515   */\n  eq\n    /* \"#utility.yul\":470:533   */\n  tag_51\n  jumpi\n    /* \"#utility.yul\":529:530   */\n  0x00\n    /* \"#utility.yul\":526:527   */\n  dup1\n    /* \"#utility.yul\":519:531   */\n  revert\n    /* \"#utility.yul\":470:533   */\ntag_51:\n    /* \"#utility.yul\":417:539   */\n  pop\n  jump\t// out\n    /* \"#utility.yul\":545:688   */\ntag_15:\n    /* \"#utility.yul\":602:607   */\n  0x00\n    /* \"#utility.yul\":633:639   */\n  dup2\n    /* \"#utility.yul\":627:640   */\n  mload\n    /* \"#utility.yul\":618:640   */\n  swap1\n  pop\n    /* \"#utility.yul\":649:682   */\n  tag_53\n    /* \"#utility.yul\":676:681   */\n  dup2\n    /* \"#utility.yul\":649:682   */\n  tag_14\n  jump\t// in\ntag_53:\n    /* \"#utility.yul\":545:688   */\n  swap3\n  swap2\n  pop\n  pop\n  jump\t// out\n    /* \"#utility.yul\":694:811   */\ntag_16:\n    /* \"#utility.yul\":803:804   */\n  0x00\n    /* \"#utility.yul\":800:801   */\n  dup1\n    /* \"#utility.yul\":793:805   */\n  revert\n    /* \"#utility.yul\":817:934   */\ntag_17:\n    /* \"#utility.yul\":926:927   */\n  0x00\n    /* \"#utility.yul\":923:924   */\n  dup1\n    /* \"#utility.yul\":916:928   */\n  revert\n    /* \"#utility.yul\":940:1042   */\ntag_18:\n    /* \"#utility.yul\":981:987   */\n  0x00\n    /* \"#utility.yul\":1032:1034   */\n  0x1f\n    /* \"#utility.yul\":1028:1035   */\n  not\n    /* \"#utility.yul\":1023:1025   */\n  0x1f\n    /* \"#utility.yul\":1016:1021   */\n  dup4\n    /* \"#utility.yul\":1012:1026   */\n  add\n    /* \"#utility.yul\":1008:1036   */\n  and\n    /* \"#utility.yul\":998:1036   */\n  swap1\n  pop\n    /* \"#utility.yul\":940:1042   */\n  swap2\n  swap1\n  pop\n  jump\t// out\n    /* \"#utility.yul\":1048:1228   */\ntag_19:\n    /* \"#utility.yul\":1096:1173   */\n  0x4e487b7100000000000000000000000000000000000000000000000000000000\n    /* \"#utility.yul\":1093:1094   */\n  0x00\n    /* \"#utility.yul\":1086:1174   */\n  mstore\n    /* \"#utility.yul\":1193:1197   */\n  0x41\n    /* \"#utility.yul\":1190:1191   */\n  0x04\n    /* \"#utility.yul\":1183:1198   */\n  mstore\n    /* \"#utility.yul\":1217:1221   */\n  0x24\n    /* \"#utility.yul\":1214:1215   */\n  0x00\n    /* \"#utility.yul\":1207:1222   */\n  revert\n    /* \"#utility.yul\":1234:1515   */\ntag_20:\n    /* \"#utility.yul\":1317:1344   */\n  tag_59\n    /* \"#utility.yul\":1339:1343   */\n  dup3\n    /* \"#utility.yul\":1317:1344   */\n  tag_18\n  jump\t// in\ntag_59:\n    /* \"#utility.yul\":1309:1315   */\n  dup2\n    /* \"#utility.yul\":1305:1345   */\n  add\n    /* \"#utility.yul\":1447:1453   */\n  dup2\n    /* \"#utility.yul\":1435:1445   */\n  dup2\n    /* \"#utility.yul\":1432:1454   */\n  lt\n    /* \"#utility.yul\":1411:1429   */\n  0xffffffffffffffff\n    /* \"#utility.yul\":1399:1409   */\n  dup3\n    /* \"#utility.yul\":1396:1430   */\n  gt\n    /* \"#utility.yul\":1393:1455   */\n  or\n    /* \"#utility.yul\":1390:1478   */\n  iszero\n  tag_60\n  jumpi\n    /* \"#utility.yul\":1458:1476   */\n  tag_61\n  tag_19\n  jump\t// in\ntag_61:\n    /* \"#utility.yul\":1390:1478   */\ntag_60:\n    /* \"#utility.yul\":1498:1508   */\n  dup1\n    /* \"#utility.yul\":1494:1496   */\n  0x40\n    /* \"#utility.yul\":1487:1509   */\n  mstore\n    /* \"#utility.yul\":1277:1515   */\n  pop\n    /* \"#utility.yul\":1234:1515   */\n  pop\n  pop\n  jump\t// out\n    /* \"#utility.yul\":1521:1650   */\ntag_21:\n    /* \"#utility.yul\":1555:1561   */\n  0x00\n    /* \"#utility.yul\":1582:1602   */\n  tag_63\n  tag_10\n  jump\t// in\ntag_63:\n    /* \"#utility.yul\":1572:1602   */\n  swap1\n  pop\n    /* \"#utility.yul\":1611:1644   */\n  tag_64\n    /* \"#utility.yul\":1639:1643   */\n  dup3\n    /* \"#utility.yul\":1631:1637   */\n  dup3\n    /* \"#utility.yul\":1611:1644   */\n  tag_20\n  jump\t// in\ntag_64:\n    /* \"#utility.yul\":1521:1650   */\n  swap2\n  swap1\n  pop\n  jump\t// out\n    /* \"#utility.yul\":1656:1964   */\ntag_22:\n    /* \"#utility.yul\":1718:1722   */\n  0x00\n    /* \"#utility.yul\":1808:1826   */\n  0xffffffffffffffff\n    /* \"#utility.yul\":1800:1806   */\n  dup3\n    /* \"#utility.yul\":1797:1827   */\n  gt\n    /* \"#utility.yul\":1794:1850   */\n  iszero\n  tag_66\n  jumpi\n    /* \"#utility.yul\":1830:1848   */\n  tag_67\n  tag_19\n  jump\t// in\ntag_67:\n    /* \"#utility.yul\":1794:1850   */\ntag_66:\n    /* \"#utility.yul\":1868:1897   */\n  tag_68\n    /* \"#utility.yul\":1890:1896   */\n  dup3\n    /* \"#utility.yul\":1868:1897   */\n  tag_18\n  jump\t// in\ntag_68:\n    /* \"#utility.yul\":1860:1897   */\n  swap1\n  pop\n    /* \"#utility.yul\":1952:1956   */\n  0x20\n    /* \"#utility.yul\":1946:1950   */\n  dup2\n    /* \"#utility.yul\":1942:1957   */\n  add\n    /* \"#utility.yul\":1934:1957   */\n  swap1\n  pop\n    /* \"#utility.yul\":1656:1964   */\n  swap2\n  swap1\n  pop\n  jump\t// out\n    /* \"#utility.yul\":1970:2216   */\ntag_23:\n    /* \"#utility.yul\":2051:2052   */\n  0x00\n    /* \"#utility.yul\":2061:2174   */\ntag_70:\n    /* \"#utility.yul\":2075:2081   */\n  dup4\n    /* \"#utility.yul\":2072:2073   */\n  dup2\n    /* \"#utility.yul\":2069:2082   */\n  lt\n    /* \"#utility.yul\":2061:2174   */\n  iszero\n  tag_72\n  jumpi\n    /* \"#utility.yul\":2160:2161   */\n  dup1\n    /* \"#utility.yul\":2155:2158   */\n  dup3\n    /* \"#utility.yul\":2151:2162   */\n  add\n    /* \"#utility.yul\":2145:2163   */\n  mload\n    /* \"#utility.yul\":2141:2142   */\n  dup2\n    /* \"#utility.yul\":2136:2139   */\n  dup5\n    /* \"#utility.yul\":2132:2143   */\n  add\n    /* \"#utility.yul\":2125:2164   */\n  mstore\n    /* \"#utility.yul\":2097:2099   */\n  0x20\n    /* \"#utility.yul\":2094:2095   */\n  dup2\n    /* \"#utility.yul\":2090:2100   */\n  add\n    /* \"#utility.yul\":2085:2100   */\n  swap1\n  pop\n    /* \"#utility.yul\":2061:2174   */\n  jump(tag_70)\ntag_72:\n    /* \"#utility.yul\":2208:2209   */\n  0x00\n    /* \"#utility.yul\":2199:2205   */\n  dup5\n    /* \"#utility.yul\":2194:2197   */\n  dup5\n    /* \"#utility.yul\":2190:2206   */\n  add\n    /* \"#utility.yul\":2183:2210   */\n  mstore\n    /* \"#utility.yul\":2032:2216   */\n  pop\n    /* \"#utility.yul\":1970:2216   */\n  pop\n  pop\n  pop\n  jump\t// out\n    /* \"#utility.yul\":2222:2656   */\ntag_24:\n    /* \"#utility.yul\":2311:2316   */\n  0x00\n    /* \"#utility.yul\":2336:2402   */\n  tag_74\n    /* \"#utility.yul\":2352:2401   */\n  tag_75\n    /* \"#utility.yul\":2394:2400   */\n  dup5\n    /* \"#utility.yul\":2352:2401   */\n  tag_22\n  jump\t// in\ntag_75:\n    /* \"#utility.yul\":2336:2402   */\n  tag_21\n  jump\t// in\ntag_74:\n    /* \"#utility.yul\":2327:2402   */\n  swap1\n  pop\n    /* \"#utility.yul\":2425:2431   */\n  dup3\n    /* \"#utility.yul\":2418:2423   */\n  dup2\n    /* \"#utility.yul\":2411:2432   */\n  mstore\n    /* \"#utility.yul\":2463:2467   */\n  0x20\n    /* \"#utility.yul\":2456:2461   */\n  dup2\n    /* \"#utility.yul\":2452:2468   */\n  add\n    /* \"#utility.yul\":2501:2504   */\n  dup5\n    /* \"#utility.yul\":2492:2498   */\n  dup5\n    /* \"#utility.yul\":2487:2490   */\n  dup5\n    /* \"#utility.yul\":2483:2499   */\n  add\n    /* \"#utility.yul\":2480:2505   */\n  gt\n    /* \"#utility.yul\":2477:2589   */\n  iszero\n  tag_76\n  jumpi\n    /* \"#utility.yul\":2508:2587   */\n  tag_77\n  tag_17\n  jump\t// in\ntag_77:\n    /* \"#utility.yul\":2477:2589   */\ntag_76:\n    /* \"#utility.yul\":2598:2650   */\n  tag_78\n    /* \"#utility.yul\":2643:2649   */\n  dup5\n    /* \"#utility.yul\":2638:2641   */\n  dup3\n    /* \"#utility.yul\":2633:2636   */\n  dup6\n    /* \"#utility.yul\":2598:2650   */\n  tag_23\n  jump\t// in\ntag_78:\n    /* \"#utility.yul\":2317:2656   */\n  pop\n    /* \"#utility.yul\":2222:2656   */\n  swap4\n  swap3\n  pop\n  pop\n  pop\n  jump\t// out\n    /* \"#utility.yul\":2676:3031   */\ntag_25:\n    /* \"#utility.yul\":2743:2748   */\n  0x00\n    /* \"#utility.yul\":2792:2795   */\n  dup3\n    /* \"#utility.yul\":2785:2789   */\n  0x1f\n    /* \"#utility.yul\":2777:2783   */\n  dup4\n    /* \"#utility.yul\":2773:2790   */\n  add\n    /* \"#utility.yul\":2769:2796   */\n  slt\n    /* \"#utility.yul\":2759:2881   */\n  tag_80\n  jumpi\n    /* \"#utility.yul\":2800:2879   */\n  tag_81\n  tag_16\n  jump\t// in\ntag_81:\n    /* \"#utility.yul\":2759:2881   */\ntag_80:\n    /* \"#utility.yul\":2910:2916   */\n  dup2\n    /* \"#utility.yul\":2904:2917   */\n  mload\n    /* \"#utility.yul\":2935:3025   */\n  tag_82\n    /* \"#utility.yul\":3021:3024   */\n  dup5\n    /* \"#utility.yul\":3013:3019   */\n  dup3\n    /* \"#utility.yul\":3006:3010   */\n  0x20\n    /* \"#utility.yul\":2998:3004   */\n  dup7\n    /* \"#utility.yul\":2994:3011   */\n  add\n    /* \"#utility.yul\":2935:3025   */\n  tag_24\n  jump\t// in\ntag_82:\n    /* \"#utility.yul\":2926:3025   */\n  swap2\n  pop\n    /* \"#utility.yul\":2749:3031   */\n  pop\n    /* \"#utility.yul\":2676:3031   */\n  swap3\n  swap2\n  pop\n  pop\n  jump\t// out\n    /* \"#utility.yul\":3037:4046   */\ntag_3:\n    /* \"#utility.yul\":3145:3151   */\n  0x00\n    /* \"#utility.yul\":3153:3159   */\n  dup1\n    /* \"#utility.yul\":3161:3167   */\n  0x00\n    /* \"#utility.yul\":3210:3212   */\n  0x60\n    /* \"#utility.yul\":3198:3207   */\n  dup5\n    /* \"#utility.yul\":3189:3196   */\n  dup7\n    /* \"#utility.yul\":3185:3208   */\n  sub\n    /* \"#utility.yul\":3181:3213   */\n  slt\n    /* \"#utility.yul\":3178:3297   */\n  iszero\n  tag_84\n  jumpi\n    /* \"#utility.yul\":3216:3295   */\n  tag_85\n  tag_11\n  jump\t// in\ntag_85:\n    /* \"#utility.yul\":3178:3297   */\ntag_84:\n    /* \"#utility.yul\":3336:3337   */\n  0x00\n    /* \"#utility.yul\":3361:3425   */\n  tag_86\n    /* \"#utility.yul\":3417:3424   */\n  dup7\n    /* \"#utility.yul\":3408:3414   */\n  dup3\n    /* \"#utility.yul\":3397:3406   */\n  dup8\n    /* \"#utility.yul\":3393:3415   */\n  add\n    /* \"#utility.yul\":3361:3425   */\n  tag_15\n  jump\t// in\ntag_86:\n    /* \"#utility.yul\":3351:3425   */\n  swap4\n  pop\n    /* \"#utility.yul\":3307:3435   */\n  pop\n    /* \"#utility.yul\":3495:3497   */\n  0x20\n    /* \"#utility.yul\":3484:3493   */\n  dup5\n    /* \"#utility.yul\":3480:3498   */\n  add\n    /* \"#utility.yul\":3474:3499   */\n  mload\n    /* \"#utility.yul\":3526:3544   */\n  0xffffffffffffffff\n    /* \"#utility.yul\":3518:3524   */\n  dup2\n    /* \"#utility.yul\":3515:3545   */\n  gt\n    /* \"#utility.yul\":3512:3629   */\n  iszero\n  tag_87\n  jumpi\n    /* \"#utility.yul\":3548:3627   */\n  tag_88\n  tag_12\n  jump\t// in\ntag_88:\n    /* \"#utility.yul\":3512:3629   */\ntag_87:\n    /* \"#utility.yul\":3653:3727   */\n  tag_89\n    /* \"#utility.yul\":3719:3726   */\n  dup7\n    /* \"#utility.yul\":3710:3716   */\n  dup3\n    /* \"#utility.yul\":3699:3708   */\n  dup8\n    /* \"#utility.yul\":3695:3717   */\n  add\n    /* \"#utility.yul\":3653:3727   */\n  tag_25\n  jump\t// in\ntag_89:\n    /* \"#utility.yul\":3643:3727   */\n  swap3\n  pop\n    /* \"#utility.yul\":3445:3737   */\n  pop\n    /* \"#utility.yul\":3797:3799   */\n  0x40\n    /* \"#utility.yul\":3786:3795   */\n  dup5\n    /* \"#utility.yul\":3782:3800   */\n  add\n    /* \"#utility.yul\":3776:3801   */\n  mload\n    /* \"#utility.yul\":3828:3846   */\n  0xffffffffffffffff\n    /* \"#utility.yul\":3820:3826   */\n  dup2\n    /* \"#utility.yul\":3817:3847   */\n  gt\n    /* \"#utility.yul\":3814:3931   */\n  iszero\n  tag_90\n  jumpi\n    /* \"#utility.yul\":3850:3929   */\n  tag_91\n  tag_12\n  jump\t// in\ntag_91:\n    /* \"#utility.yul\":3814:3931   */\ntag_90:\n    /* \"#utility.yul\":3955:4029   */\n  tag_92\n    /* \"#utility.yul\":4021:4028   */\n  dup7\n    /* \"#utility.yul\":4012:4018   */\n  dup3\n    /* \"#utility.yul\":4001:4010   */\n  dup8\n    /* \"#utility.yul\":3997:4019   */\n  add\n    /* \"#utility.yul\":3955:4029   */\n  tag_25\n  jump\t// in\ntag_92:\n    /* \"#utility.yul\":3945:4029   */\n  swap2\n  pop\n    /* \"#utility.yul\":3747:4039   */\n  pop\n    /* \"#utility.yul\":3037:4046   */\n  swap3\n  pop\n  swap3\n  pop\n  swap3\n  jump\t// out\n    /* \"#utility.yul\":4052:4151   */\ntag_26:\n    /* \"#utility.yul\":4104:4110   */\n  0x00\n    /* \"#utility.yul\":4138:4143   */\n  dup2\n    /* \"#utility.yul\":4132:4144   */\n  mload\n    /* \"#utility.yul\":4122:4144   */\n  swap1\n  pop\n    /* \"#utility.yul\":4052:4151   */\n  swap2\n  swap1\n  pop\n  jump\t// out\n    /* \"#utility.yul\":4157:4337   */\ntag_27:\n    /* \"#utility.yul\":4205:4282   */\n  0x4e487b7100000000000000000000000000000000000000000000000000000000\n    /* \"#utility.yul\":4202:4203   */\n  0x00\n    /* \"#utility.yul\":4195:4283   */\n  mstore\n    /* \"#utility.yul\":4302:4306   */\n  0x22\n    /* \"#utility.yul\":4299:4300   */\n  0x04\n    /* \"#utility.yul\":4292:4307   */\n  mstore\n    /* \"#utility.yul\":4326:4330   */\n  0x24\n    /* \"#utility.yul\":4323:4324   */\n  0x00\n    /* \"#utility.yul\":4316:4331   */\n  revert\n    /* \"#utility.yul\":4343:4663   */\ntag_28:\n    /* \"#utility.yul\":4387:4393   */\n  0x00\n    /* \"#utility.yul\":4424:4425   */\n  0x02\n    /* \"#utility.yul\":4418:4422   */\n  dup3\n    /* \"#utility.yul\":4414:4426   */\n  div\n    /* \"#utility.yul\":4404:4426   */\n  swap1\n  pop\n    /* \"#utility.yul\":4471:4472   */\n  0x01\n    /* \"#utility.yul\":4465:4469   */\n  dup3\n    /* \"#utility.yul\":4461:4473   */\n  and\n    /* \"#utility.yul\":4492:4510   */\n  dup1\n    /* \"#utility.yul\":4482:4563   */\n  tag_96\n  jumpi\n    /* \"#utility.yul\":4548:4552   */\n  0x7f\n    /* \"#utility.yul\":4540:4546   */\n  dup3\n    /* \"#utility.yul\":4536:4553   */\n  and\n    /* \"#utility.yul\":4526:4553   */\n  swap2\n  pop\n    /* \"#utility.yul\":4482:4563   */\ntag_96:\n    /* \"#utility.yul\":4610:4612   */\n  0x20\n    /* \"#utility.yul\":4602:4608   */\n  dup3\n    /* \"#utility.yul\":4599:4613   */\n  lt\n    /* \"#utility.yul\":4579:4597   */\n  dup2\n    /* \"#utility.yul\":4576:4614   */\n  sub\n    /* \"#utility.yul\":4573:4657   */\n  tag_97\n  jumpi\n    /* \"#utility.yul\":4629:4647   */\n  tag_98\n  tag_27\n  jump\t// in\ntag_98:\n    /* \"#utility.yul\":4573:4657   */\ntag_97:\n    /* \"#utility.yul\":4394:4663   */\n  pop\n    /* \"#utility.yul\":4343:4663   */\n  swap2\n  swap1\n  pop\n  jump\t// out\n    /* \"#utility.yul\":4669:4810   */\ntag_29:\n    /* \"#utility.yul\":4718:4722   */\n  0x00\n    /* \"#utility.yul\":4741:4744   */\n  dup2\n    /* \"#utility.yul\":4733:4744   */\n  swap1\n  pop\n    /* \"#utility.yul\":4764:4767   */\n  dup2\n    /* \"#utility.yul\":4761:4762   */\n  0x00\n    /* \"#utility.yul\":4754:4768   */\n  mstore\n    /* \"#utility.yul\":4798:4802   */\n  0x20\n    /* \"#utility.yul\":4795:4796   */\n  0x00\n    /* \"#utility.yul\":4785:4803   */\n  keccak256\n    /* \"#utility.yul\":4777:4803   */\n  swap1\n  pop\n    /* \"#utility.yul\":4669:4810   */\n  swap2\n  swap1\n  pop\n  jump\t// out\n    /* \"#utility.yul\":4816:4909   */\ntag_30:\n    /* \"#utility.yul\":4853:4859   */\n  0x00\n    /* \"#utility.yul\":4900:4902   */\n  0x20\n    /* \"#utility.yul\":4895:4897   */\n  0x1f\n    /* \"#utility.yul\":4888:4893   */\n  dup4\n    /* \"#utility.yul\":4884:4898   */\n  add\n    /* \"#utility.yul\":4880:4903   */\n  div\n    /* \"#utility.yul\":4870:4903   */\n  swap1\n  pop\n    /* \"#utility.yul\":4816:4909   */\n  swap2\n  swap1\n  pop\n  jump\t// out\n    /* \"#utility.yul\":4915:5022   */\ntag_31:\n    /* \"#utility.yul\":4959:4967   */\n  0x00\n    /* \"#utility.yul\":5009:5014   */\n  dup3\n    /* \"#utility.yul\":5003:5007   */\n  dup3\n    /* \"#utility.yul\":4999:5015   */\n  shl\n    /* \"#utility.yul\":4978:5015   */\n  swap1\n  pop\n    /* \"#utility.yul\":4915:5022   */\n  swap3\n  swap2\n  pop\n  pop\n  jump\t// out\n    /* \"#utility.yul\":5028:5421   */\ntag_32:\n    /* \"#utility.yul\":5097:5103   */\n  0x00\n    /* \"#utility.yul\":5147:5148   */\n  0x08\n    /* \"#utility.yul\":5135:5145   */\n  dup4\n    /* \"#utility.yul\":5131:5149   */\n  mul\n    /* \"#utility.yul\":5170:5267   */\n  tag_103\n    /* \"#utility.yul\":5200:5266   */\n  0xffffffffffffffffffffffffffffffffffffffffffffffffffffffffffffffff\n    /* \"#utility.yul\":5189:5198   */\n  dup3\n    /* \"#utility.yul\":5170:5267   */\n  tag_31\n  jump\t// in\ntag_103:\n    /* \"#utility.yul\":5288:5327   */\n  tag_104\n    /* \"#utility.yul\":5318:5326   */\n  dup7\n    /* \"#utility.yul\":5307:5316   */\n  dup4\n    /* \"#utility.yul\":5288:5327   */\n  tag_31\n  jump\t// in\ntag_104:\n    /* \"#utility.yul\":5276:5327   */\n  swap6\n  pop\n    /* \"#utility.yul\":5360:5364   */\n  dup1\n    /* \"#utility.yul\":5356:5365   */\n  not\n    /* \"#utility.yul\":5349:5354   */\n  dup5\n    /* \"#utility.yul\":5345:5366   */\n  and\n    /* \"#utility.yul\":5336:5366   */\n  swap4\n  pop\n    /* \"#utility.yul\":5409:5413   */\n  dup1\n    /* \"#utility.yul\":5399:5407   */\n  dup7\n    /* \"#utility.yul\":5395:5414   */\n  and\n    /* \"#utility.yul\":5388:5393   */\n  dup5\n    /* \"#utility.yul\":5385:5415   */\n  or\n    /* \"#utility.yul\":5375:5415   */\n  swap3\n  pop\n    /* \"#utility.yul\":5104:5421   */\n  pop\n  pop\n    /* \"#utility.yul\":5028:5421   */\n  swap4\n  swap3\n  pop\n  pop\n  pop\n  jump\t// out\n    /* \"#utility.yul\":5427:5487   */\ntag_33:\n    /* \"#utility.yul\":5455:5458   */\n  0x00\n    /* \"#utility.yul\":5476:5481   */\n  dup2\n    /* \"#utility.yul\":5469:5481   */\n  swap1\n  pop\n    /* \"#utility.yul\":5427:5487   */\n  swap2\n  swap1\n  pop\n  jump\t// out\n    /* \"#utility.yul\":5493:5635   */\ntag_34:\n    /* \"#utility.yul\":5543:5552   */\n  0x00\n    /* \"#utility.yul\":5576:5629   */\n  tag_107\n    /* \"#utility.yul\":5594:5628   */\n  tag_108\n    /* \"#utility.yul\":5603:5627   */\n  tag_109\n    /* \"#utility.yul\":5621:5626   */\n  dup5\n    /* \"#utility.yul\":5603:5627   */\n  tag_13\n  jump\t// in\ntag_109:\n    /* \"#utility.yul\":5594:5628   */\n  tag_33\n  jump\t// in\ntag_108:\n    /* \"#utility.yul\":5576:5629   */\n  tag_13\n  jump\t// in\ntag_107:\n    /* \"#utility.yul\":5563:5629   */\n  swap1\n  pop\n    /* \"#utility.yul\":5493:5635   */\n  swap2\n  swap1\n  pop\n  jump\t// out\n    /* \"#utility.yul\":5641:5716   */\ntag_35:\n    /* \"#utility.yul\":5684:5687   */\n  0x00\n    /* \"#utility.yul\":5705:5710   */\n  dup2\n    /* \"#utility.yul\":5698:5710   */\n  swap1\n  pop\n    /* \"#utility.yul\":5641:5716   */\n  swap2\n  swap1\n  pop\n  jump\t// out\n    /* \"#utility.yul\":5722:5991   */\ntag_36:\n    /* \"#utility.yul\":5832:5871   */\n  tag_112\n    /* \"#utility.yul\":5863:5870   */\n  dup4\n    /* \"#utility.yul\":5832:5871   */\n  tag_34\n  jump\t// in\ntag_112:\n    /* \"#utility.yul\":5893:5984   */\n  tag_113\n    /* \"#utility.yul\":5942:5983   */\n  tag_114\n    /* \"#utility.yul\":5966:5982   */\n  dup3\n    /* \"#utility.yul\":5942:5983   */\n  tag_35\n  jump\t// in\ntag_114:\n    /* \"#utility.yul\":5934:5940   */\n  dup5\n    /* \"#utility.yul\":5927:5931   */\n  dup5\n    /* \"#utility.yul\":5921:5932   */\n  sload\n    /* \"#utility.yul\":5893:5984   */\n  tag_32\n  jump\t// in\ntag_113:\n    /* \"#utility.yul\":5887:5891   */\n  dup3\n    /* \"#utility.yul\":5880:5985   */\n  sstore\n    /* \"#utility.yul\":5798:5991   */\n  pop\n    /* \"#utility.yul\":5722:5991   */\n  pop\n  pop\n  pop\n  jump\t// out\n    /* \"#utility.yul\":5997:6070   */\ntag_37:\n    /* \"#utility.yul\":6042:6045   */\n  0x00\n    /* \"#utility.yul\":5997:6070   */\n  swap1\n  jump\t// out\n    /* \"#utility.yul\":6076:6265   */\ntag_38:\n    /* \"#utility.yul\":6153:6185   */\n  tag_117\n  tag_37\n  jump\t// in\ntag_117:\n    /* \"#utility.yul\":6194:6259   */\n  tag_118\n    /* \"#utility.yul\":6252:6258   */\n  dup2\n    /* \"#utility.yul\":6244:6250   */\n  dup5\n    /* \"#utility.yul\":6238:6242   */\n  dup5\n    /* \"#utility.yul\":6194:6259   */\n  tag_36\n  jump\t// in\ntag_118:\n    /* \"#utility.yul\":6129:6265   */\n  pop\n    /* \"#utility.yul\":6076:6265   */\n  pop\n  pop\n  jump\t// out\n    /* \"#utility.yul\":6271:6457   */\ntag_39:\n    /* \"#utility.yul\":6331:6451   */\ntag_120:\n    /* \"#utility.yul\":6348:6351   */\n  dup2\n    /* \"#utility.yul\":6341:6346   */\n  dup2\n    /* \"#utility.yul\":6338:6352   */\n  lt\n    /* \"#utility.yul\":6331:6451   */\n  iszero\n  tag_122\n  jumpi\n    /* \"#utility.yul\":6402:6441   */\n  tag_123\n    /* \"#utility.yul\":6439:6440   */\n  0x00\n    /* \"#utility.yul\":6432:6437   */\n  dup3\n    /* \"#utility.yul\":6402:6441   */\n  tag_38\n  jump\t// in\ntag_123:\n    /* \"#utility.yul\":6375:6376   */\n  0x01\n    /* \"#utility.yul\":6368:6373   */\n  dup2\n    /* \"#utility.yul\":6364:6377   */\n  add\n    /* \"#utility.yul\":6355:6377   */\n  swap1\n  pop\n    /* \"#utility.yul\":6331:6451   */\n  jump(tag_120)\ntag_122:\n    /* \"#utility.yul\":6271:6457   */\n  pop\n  pop\n  jump\t// out\n    /* \"#utility.yul\":6463:7006   */\ntag_40:\n    /* \"#utility.yul\":6564:6566   */\n  0x1f\n    /* \"#utility.yul\":6559:6562   */\n  dup3\n    /* \"#utility.yul\":6556:6567   */\n  gt\n    /* \"#utility.yul\":6553:6999   */\n  iszero\n  tag_125\n  jumpi\n    /* \"#utility.yul\":6598:6636   */\n  tag_126\n    /* \"#utility.yul\":6630:6635   */\n  dup2\n    /* \"#utility.yul\":6598:6636   */\n  tag_29\n  jump\t// in\ntag_126:\n    /* \"#utility.yul\":6682:6711   */\n  tag_127\n    /* \"#utility.yul\":6700:6710   */\n  dup5\n    /* \"#utility.yul\":6682:6711   */\n  tag_30\n  jump\t// in\ntag_127:\n    /* \"#utility.yul\":6672:6680   */\n  dup2\n    /* \"#utility.yul\":6668:6712   */\n  add\n    /* \"#utility.yul\":6865:6867   */\n  0x20\n    /* \"#utility.yul\":6853:6863   */\n  dup6\n    /* \"#utility.yul\":6850:6868   */\n  lt\n    /* \"#utility.yul\":6847:6896   */\n  iszero\n  tag_128\n  jumpi\n    /* \"#utility.yul\":6886:6894   */\n  dup2\n    /* \"#utility.yul\":6871:6894   */\n  swap1\n  pop\n    /* \"#utility.yul\":6847:6896   */\ntag_128:\n    /* \"#utility.yul\":6909:6989   */\n  tag_129\n    /* \"#utility.yul\":6965:6987   */\n  tag_130\n    /* \"#utility.yul\":6983:6986   */\n  dup6\n    /* \"#utility.yul\":6965:6987   */\n  tag_30\n  jump\t// in\ntag_130:\n    /* \"#utility.yul\":6955:6963   */\n  dup4\n    /* \"#utility.yul\":6951:6988   */\n  add\n    /* \"#utility.yul\":6938:6949   */\n  dup3\n    /* \"#utility.yul\":6909:6989   */\n  tag_39\n  jump\t// in\ntag_129:\n    /* \"#utility.yul\":6568:6999   */\n  pop\n  pop\n    /* \"#utility.yul\":6553:6999   */\ntag_125:\n    /* \"#utility.yul\":6463:7006   */\n  pop\n  pop\n  pop\n  jump\t// out\n    /* \"#utility.yul\":7012:7129   */\ntag_41:\n    /* \"#utility.yul\":7066:7074   */\n  0x00\n    /* \"#utility.yul\":7116:7121   */\n  dup3\n    /* \"#utility.yul\":7110:7114   */\n  dup3\n    /* \"#utility.yul\":7106:7122   */\n  shr\n    /* \"#utility.yul\":7085:7122   */\n  swap1\n  pop\n    /* \"#utility.yul\":7012:7129   */\n  swap3\n  swap2\n  pop\n  pop\n  jump\t// out\n    /* \"#utility.yul\":7135:7304   */\ntag_42:\n    /* \"#utility.yul\":7179:7185   */\n  0x00\n    /* \"#utility.yul\":7212:7263   */\n  tag_133\n    /* \"#utility.yul\":7260:7261   */\n  0x00\n    /* \"#utility.yul\":7256:7262   */\n  not\n    /* \"#utility.yul\":7248:7253   */\n  dup5\n    /* \"#utility.yul\":7245:7246   */\n  0x08\n    /* \"#utility.yul\":7241:7254   */\n  mul\n    /* \"#utility.yul\":7212:7263   */\n  tag_41\n  jump\t// in\ntag_133:\n    /* \"#utility.yul\":7208:7264   */\n  not\n    /* \"#utility.yul\":7293:7297   */\n  dup1\n    /* \"#utility.yul\":7287:7291   */\n  dup4\n    /* \"#utility.yul\":7283:7298   */\n  and\n    /* \"#utility.yul\":7273:7298   */\n  swap2\n  pop\n    /* \"#utility.yul\":7186:7304   */\n  pop\n    /* \"#utility.yul\":7135:7304   */\n  swap3\n  swap2\n  pop\n  pop\n  jump\t// out\n    /* \"#utility.yul\":7309:7604   */\ntag_43:\n    /* \"#utility.yul\":7385:7389   */\n  0x00\n    /* \"#utility.yul\":7531:7560   */\n  tag_135\n    /* \"#utility.yul\":7556:7559   */\n  dup4\n    /* \"#utility.yul\":7550:7554   */\n  dup4\n    /* \"#utility.yul\":7531:7560   */\n  tag_42\n  jump\t// in\ntag_135:\n    /* \"#utility.yul\":7523:7560   */\n  swap2\n  pop\n    /* \"#utility.yul\":7593:7596   */\n  dup3\n    /* \"#utility.yul\":7590:7591   */\n  0x02\n    /* \"#utility.yul\":7586:7597   */\n  mul\n    /* \"#utility.yul\":7580:7584   */\n  dup3\n    /* \"#utility.yul\":7577:7598   */\n  or\n    /* \"#utility.yul\":7569:7598   */\n  swap1\n  pop\n    /* \"#utility.yul\":7309:7604   */\n  swap3\n  swap2\n  pop\n  pop\n  jump\t// out\n    /* \"#utility.yul\":7609:9004   */\ntag_7:\n    /* \"#utility.yul\":7726:7763   */\n  tag_137\n    /* \"#utility.yul\":7759:7762   */\n  dup3\n    /* \"#utility.yul\":7726:7763   */\n  tag_26\n  jump\t// in\ntag_137:\n    /* \"#utility.yul\":7828:7846   */\n  0xffffffffffffffff\n    /* \"#utility.yul\":7820:7826   */\n  dup2\n    /* \"#utility.yul\":7817:7847   */\n  gt\n    /* \"#utility.yul\":7814:7870   */\n  iszero\n  tag_138\n  jumpi\n    /* \"#utility.yul\":7850:7868   */\n  tag_139\n  tag_19\n  jump\t// in\ntag_139:\n    /* \"#utility.yul\":7814:7870   */\ntag_138:\n    /* \"#utility.yul\":7894:7932   */\n  tag_140\n    /* \"#utility.yul\":7926:7930   */\n  dup3\n    /* \"#utility.yul\":7920:7931   */\n  sload\n    /* \"#utility.yul\":7894:7932   */\n  tag_28\n  jump\t// in\ntag_140:\n    /* \"#utility.yul\":7979:8046   */\n  tag_141\n    /* \"#utility.yul\":8039:8045   */\n  dup3\n    /* \"#utility.yul\":8031:8037   */\n  dup3\n    /* \"#utility.yul\":8025:8029   */\n  dup6\n    /* \"#utility.yul\":7979:8046   */\n  tag_40\n  jump\t// in\ntag_141:\n    /* \"#utility.yul\":8073:8074   */\n  0x00\n    /* \"#utility.yul\":8097:8101   */\n  0x20\n    /* \"#utility.yul\":8084:8101   */\n  swap1\n  pop\n    /* \"#utility.yul\":8129:8131   */\n  0x1f\n    /* \"#utility.yul\":8121:8127   */\n  dup4\n    /* \"#utility.yul\":8118:8132   */\n  gt\n    /* \"#utility.yul\":8146:8147   */\n  0x01\n    /* \"#utility.yul\":8141:8759   */\n  dup2\n  eq\n  tag_143\n  jumpi\n    /* \"#utility.yul\":8803:8804   */\n  0x00\n    /* \"#utility.yul\":8820:8826   */\n  dup5\n    /* \"#utility.yul\":8817:8894   */\n  iszero\n  tag_144\n  jumpi\n    /* \"#utility.yul\":8869:8878   */\n  dup3\n    /* \"#utility.yul\":8864:8867   */\n  dup8\n    /* \"#utility.yul\":8860:8879   */\n  add\n    /* \"#utility.yul\":8854:8880   */\n  mload\n    /* \"#utility.yul\":8845:8880   */\n  swap1\n  pop\n    /* \"#utility.yul\":8817:8894   */\ntag_144:\n    /* \"#utility.yul\":8920:8987   */\n  tag_145\n    /* \"#utility.yul\":8980:8986   */\n  dup6\n    /* \"#utility.yul\":8973:8978   */\n  dup3\n    /* \"#utility.yul\":8920:8987   */\n  tag_43\n  jump\t// in\ntag_145:\n    /* \"#utility.yul\":8914:8918   */\n  dup7\n    /* \"#utility.yul\":8907:8988   */\n  sstore\n    /* \"#utility.yul\":8776:8998   */\n  pop\n    /* \"#utility.yul\":8111:8998   */\n  jump(tag_142)\n    /* \"#utility.yul\":8141:8759   */\ntag_143:\n    /* \"#utility.yul\":8193:8197   */\n  0x1f\n    /* \"#utility.yul\":8189:8198   */\n  not\n    /* \"#utility.yul\":8181:8187   */\n  dup5\n    /* \"#utility.yul\":8177:8199   */\n  and\n    /* \"#utility.yul\":8227:8264   */\n  tag_146\n    /* \"#utility.yul\":8259:8263   */\n  dup7\n    /* \"#utility.yul\":8227:8264   */\n  tag_29\n  jump\t// in\ntag_146:\n    /* \"#utility.yul\":8286:8287   */\n  0x00\n    /* \"#utility.yul\":8300:8508   */\ntag_147:\n    /* \"#utility.yul\":8314:8321   */\n  dup3\n    /* \"#utility.yul\":8311:8312   */\n  dup2\n    /* \"#utility.yul\":8308:8322   */\n  lt\n    /* \"#utility.yul\":8300:8508   */\n  iszero\n  tag_149\n  jumpi\n    /* \"#utility.yul\":8393:8402   */\n  dup5\n    /* \"#utility.yul\":8388:8391   */\n  dup10\n    /* \"#utility.yul\":8384:8403   */\n  add\n    /* \"#utility.yul\":8378:8404   */\n  mload\n    /* \"#utility.yul\":8370:8376   */\n  dup3\n    /* \"#utility.yul\":8363:8405   */\n  sstore\n    /* \"#utility.yul\":8444:8445   */\n  0x01\n    /* \"#utility.yul\":8436:8442   */\n  dup3\n    /* \"#utility.yul\":8432:8446   */\n  add\n    /* \"#utility.yul\":8422:8446   */\n  swap2\n  pop\n    /* \"#utility.yul\":8491:8493   */\n  0x20\n    /* \"#utility.yul\":8480:8489   */\n  dup6\n    /* \"#utility.yul\":8476:8494   */\n  add\n    /* \"#utility.yul\":8463:8494   */\n  swap5\n  pop\n    /* \"#utility.yul\":8337:8341   */\n  0x20\n    /* \"#utility.yul\":8334:8335   */\n  dup2\n    /* \"#utility.yul\":8330:8342   */\n  add\n    /* \"#utility.yul\":8325:8342   */\n  swap1\n  pop\n    /* \"#utility.yul\":8300:8508   */\n  jump(tag_147)\ntag_149:\n    /* \"#utility.yul\":8536:8542   */\n  dup7\n    /* \"#utility.yul\":8527:8534   */\n  dup4\n    /* \"#utility.yul\":8524:8543   */\n  lt\n    /* \"#utility.yul\":8521:8700   */\n  iszero\n  tag_150\n  jumpi\n    /* \"#utility.yul\":8594:8603   */\n  dup5\n    /* \"#utility.yul\":8589:8592   */\n  dup10\n    /* \"#utility.yul\":8585:8604   */\n  add\n    /* \"#utility.yul\":8579:8605   */\n  mload\n    /* \"#utility.yul\":8637:8685   */\n  tag_151\n    /* \"#utility.yul\":8679:8683   */\n  0x1f\n    /* \"#utility.yul\":8671:8677   */\n  dup10\n    /* \"#utility.yul\":8667:8684   */\n  and\n    /* \"#utility.yul\":8656:8665   */\n  dup3\n    /* \"#utility.yul\":8637:8685   */\n  tag_42\n  jump\t// in\ntag_151:\n    /* \"#utility.yul\":8629:8635   */\n  dup4\n    /* \"#utility.yul\":8622:8686   */\n  sstore\n    /* \"#utility.yul\":8544:8700   */\n  pop\n    /* \"#utility.yul\":8521:8700   */\ntag_150:\n    /* \"#utility.yul\":8746:8747   */\n  0x01\n    /* \"#utility.yul\":8742:8743   */\n  0x02\n    /* \"#utility.yul\":8734:8740   */\n  dup9\n    /* \"#utility.yul\":8730:8744   */\n  mul\n    /* \"#utility.yul\":8726:8748   */\n  add\n    /* \"#utility.yul\":8720:8724   */\n  dup9\n    /* \"#utility.yul\":8713:8749   */\n  sstore\n    /* \"#utility.yul\":8148:8759   */\n  pop\n  pop\n  pop\n    /* \"#utility.yul\":8111:8998   */\ntag_142:\n  pop\n    /* \"#utility.yul\":7701:9004   */\n  pop\n  pop\n  pop\n    /* \"#utility.yul\":7609:9004   */\n  pop\n  pop\n  jump\t// out\n    /* \"step_11_Struct/Struct.sol\":140:584  contract Employees{... */\ntag_9:\n  dataSize(sub_0)\n  dup1\n  dataOffset(sub_0)\n  0x00\n  codecopy\n  0x00\n  return\nstop\n\nsub_0: assembly {\n        /* \"step_11_Struct/Struct.sol\":140:584  contract Employees{... */\n      mstore(0x40, 0x80)\n      callvalue\n      dup1\n      iszero\n      tag_1\n      jumpi\n      0x00\n      dup1\n      revert\n    tag_1:\n      pop\n      jumpi(tag_2, lt(calldatasize, 0x04))\n      shr(0xe0, calldataload(0x00))\n      dup1\n      0xb34fad41\n      eq\n      tag_3\n      jumpi\n      dup1\n      0xc30691f7\n      eq\n      tag_4\n      jumpi\n    tag_2:\n      0x00\n      dup1\n      revert\n        /* \"step_11_Struct/Struct.sol\":165:184  Employee public emp */\n    tag_3:\n      tag_5\n      tag_6\n      jump\t// in\n    tag_5:\n      mload(0x40)\n      tag_7\n      swap4\n      swap3\n      swap2\n      swap1\n      tag_8\n      jump\t// in\n    tag_7:\n      mload(0x40)\n      dup1\n      swap2\n      sub\n      swap1\n      return\n        /* \"step_11_Struct/Struct.sol\":346:582  function setEmployee (uint _id, string memory _name, string memory _gender) public{... */\n    tag_4:\n      tag_9\n      0x04\n      dup1\n      calldatasize\n      sub\n      dup2\n      add\n      swap1\n      tag_10\n      swap2\n      swap1\n      tag_11\n      jump\t// in\n    tag_10:\n      tag_12\n      jump\t// in\n    tag_9:\n      stop\n        /* \"step_11_Struct/Struct.sol\":165:184  Employee public emp */\n    tag_6:\n      0x00\n      dup1\n      0x00\n      add\n      sload\n      swap1\n      dup1\n      0x01\n      add\n      dup1\n      sload\n      tag_13\n      swap1\n      tag_14\n      jump\t// in\n    tag_13:\n      dup1\n      0x1f\n      add\n      0x20\n      dup1\n      swap2\n      div\n      mul\n      0x20\n      add\n      mload(0x40)\n      swap1\n      dup2\n      add\n      0x40\n      mstore\n      dup1\n      swap3\n      swap2\n      swap1\n      dup2\n      dup2\n      mstore\n      0x20\n      add\n      dup3\n      dup1\n      sload\n      tag_15\n      swap1\n      tag_14\n      jump\t// in\n    tag_15:\n      dup1\n      iszero\n      tag_16\n      jumpi\n      dup1\n      0x1f\n      lt\n      tag_17\n      jumpi\n      0x0100\n      dup1\n      dup4\n      sload\n      div\n      mul\n      dup4\n      mstore\n      swap2\n      0x20\n      add\n      swap2\n      jump(tag_16)\n    tag_17:\n      dup3\n      add\n      swap2\n      swap1\n      0x00\n      mstore\n      keccak256(0x00, 0x20)\n      swap1\n    tag_18:\n      dup2\n      sload\n      dup2\n      mstore\n      swap1\n      0x01\n      add\n      swap1\n      0x20\n      add\n      dup1\n      dup4\n      gt\n      tag_18\n      jumpi\n      dup3\n      swap1\n      sub\n      0x1f\n      and\n      dup3\n      add\n      swap2\n    tag_16:\n      pop\n      pop\n      pop\n      pop\n      pop\n      swap1\n      dup1\n      0x02\n      add\n      dup1\n      sload\n      tag_19\n      swap1\n      tag_14\n      jump\t// in\n    tag_19:\n      dup1\n      0x1f\n      add\n      0x20\n      dup1\n      swap2\n      div\n      mul\n      0x20\n      add\n      mload(0x40)\n      swap1\n      dup2\n      add\n      0x40\n      mstore\n      dup1\n      swap3\n      swap2\n      swap1\n      dup2\n      dup2\n      mstore\n      0x20\n      add\n      dup3\n      dup1\n      sload\n      tag_20\n      swap1\n      tag_14\n      jump\t// in\n    tag_20:\n      dup1\n      iszero\n      tag_21\n      jumpi\n      dup1\n      0x1f\n      lt\n      tag_22\n      jumpi\n      0x0100\n      dup1\n      dup4\n      sload\n      div\n      mul\n      dup4\n      mstore\n      swap2\n      0x20\n      add\n      swap2\n      jump(tag_21)\n    tag_22:\n      dup3\n      add\n      swap2\n      swap1\n      0x00\n      mstore\n      keccak256(0x00, 0x20)\n      swap1\n    tag_23:\n      dup2\n      sload\n      dup2\n      mstore\n      swap1\n      0x01\n      add\n      swap1\n      0x20\n      add\n      dup1\n      dup4\n      gt\n      tag_23\n      jumpi\n      dup3\n      swap1\n      sub\n      0x1f\n      and\n      dup3\n      add\n      swap2\n    tag_21:\n      pop\n      pop\n      pop\n      pop\n      pop\n      swap1\n      pop\n      dup4\n      jump\t// out\n        /* \"step_11_Struct/Struct.sol\":346:582  function setEmployee (uint _id, string memory _name, string memory _gender) public{... */\n    tag_12:\n        /* \"step_11_Struct/Struct.sol\":439:459  Employee memory emp2 */\n      0x00\n        /* \"step_11_Struct/Struct.sol\":462:554  Employee({... */\n      mload(0x40)\n      dup1\n      0x60\n      add\n      0x40\n      mstore\n      dup1\n        /* \"step_11_Struct/Struct.sol\":488:491  _id */\n      dup6\n        /* \"step_11_Struct/Struct.sol\":462:554  Employee({... */\n      dup2\n      mstore\n      0x20\n      add\n        /* \"step_11_Struct/Struct.sol\":510:515  _name */\n      dup5\n        /* \"step_11_Struct/Struct.sol\":462:554  Employee({... */\n      dup2\n      mstore\n      0x20\n      add\n        /* \"step_11_Struct/Struct.sol\":536:543  _gender */\n      dup4\n        /* \"step_11_Struct/Struct.sol\":462:554  Employee({... */\n      dup2\n      mstore\n      pop\n        /* \"step_11_Struct/Struct.sol\":439:554  Employee memory emp2 = Employee({... */\n      swap1\n      pop\n        /* \"step_11_Struct/Struct.sol\":570:574  emp2 */\n      dup1\n        /* \"step_11_Struct/Struct.sol\":564:567  emp */\n      0x00\n        /* \"step_11_Struct/Struct.sol\":564:574  emp = emp2 */\n      dup1\n      dup3\n      add\n      mload\n      dup2\n      0x00\n      add\n      sstore\n      0x20\n      dup3\n      add\n      mload\n      dup2\n      0x01\n      add\n      swap1\n      dup2\n      tag_25\n      swap2\n      swap1\n      tag_26\n      jump\t// in\n    tag_25:\n      pop\n      0x40\n      dup3\n      add\n      mload\n      dup2\n      0x02\n      add\n      swap1\n      dup2\n      tag_27\n      swap2\n      swap1\n      tag_26\n      jump\t// in\n    tag_27:\n      pop\n      swap1\n      pop\n      pop\n        /* \"step_11_Struct/Struct.sol\":428:582  {... */\n      pop\n        /* \"step_11_Struct/Struct.sol\":346:582  function setEmployee (uint _id, string memory _name, string memory _gender) public{... */\n      pop\n      pop\n      pop\n      jump\t// out\n        /* \"#utility.yul\":7:84   */\n    tag_28:\n        /* \"#utility.yul\":44:51   */\n      0x00\n        /* \"#utility.yul\":73:78   */\n      dup2\n        /* \"#utility.yul\":62:78   */\n      swap1\n      pop\n        /* \"#utility.yul\":7:84   */\n      swap2\n      swap1\n      pop\n      jump\t// out\n        /* \"#utility.yul\":90:208   */\n    tag_29:\n        /* \"#utility.yul\":177:201   */\n      tag_68\n        /* \"#utility.yul\":195:200   */\n      dup2\n        /* \"#utility.yul\":177:201   */\n      tag_28\n      jump\t// in\n    tag_68:\n        /* \"#utility.yul\":172:175   */\n      dup3\n        /* \"#utility.yul\":165:202   */\n      mstore\n        /* \"#utility.yul\":90:208   */\n      pop\n      pop\n      jump\t// out\n        /* \"#utility.yul\":214:313   */\n    tag_30:\n        /* \"#utility.yul\":266:272   */\n      0x00\n        /* \"#utility.yul\":300:305   */\n      dup2\n        /* \"#utility.yul\":294:306   */\n      mload\n        /* \"#utility.yul\":284:306   */\n      swap1\n      pop\n        /* \"#utility.yul\":214:313   */\n      swap2\n      swap1\n      pop\n      jump\t// out\n        /* \"#utility.yul\":319:488   */\n    tag_31:\n        /* \"#utility.yul\":403:414   */\n      0x00\n        /* \"#utility.yul\":437:443   */\n      dup3\n        /* \"#utility.yul\":432:435   */\n      dup3\n        /* \"#utility.yul\":425:444   */\n      mstore\n        /* \"#utility.yul\":477:481   */\n      0x20\n        /* \"#utility.yul\":472:475   */\n      dup3\n        /* \"#utility.yul\":468:482   */\n      add\n        /* \"#utility.yul\":453:482   */\n      swap1\n      pop\n        /* \"#utility.yul\":319:488   */\n      swap3\n      swap2\n      pop\n      pop\n      jump\t// out\n        /* \"#utility.yul\":494:740   */\n    tag_32:\n        /* \"#utility.yul\":575:576   */\n      0x00\n        /* \"#utility.yul\":585:698   */\n    tag_72:\n        /* \"#utility.yul\":599:605   */\n      dup4\n        /* \"#utility.yul\":596:597   */\n      dup2\n        /* \"#utility.yul\":593:606   */\n      lt\n        /* \"#utility.yul\":585:698   */\n      iszero\n      tag_74\n      jumpi\n        /* \"#utility.yul\":684:685   */\n      dup1\n        /* \"#utility.yul\":679:682   */\n      dup3\n        /* \"#utility.yul\":675:686   */\n      add\n        /* \"#utility.yul\":669:687   */\n      mload\n        /* \"#utility.yul\":665:666   */\n      dup2\n        /* \"#utility.yul\":660:663   */\n      dup5\n        /* \"#utility.yul\":656:667   */\n      add\n        /* \"#utility.yul\":649:688   */\n      mstore\n        /* \"#utility.yul\":621:623   */\n      0x20\n        /* \"#utility.yul\":618:619   */\n      dup2\n        /* \"#utility.yul\":614:624   */\n      add\n        /* \"#utility.yul\":609:624   */\n      swap1\n      pop\n        /* \"#utility.yul\":585:698   */\n      jump(tag_72)\n    tag_74:\n        /* \"#utility.yul\":732:733   */\n      0x00\n        /* \"#utility.yul\":723:729   */\n      dup5\n        /* \"#utility.yul\":718:721   */\n      dup5\n        /* \"#utility.yul\":714:730   */\n      add\n        /* \"#utility.yul\":707:734   */\n      mstore\n        /* \"#utility.yul\":556:740   */\n      pop\n        /* \"#utility.yul\":494:740   */\n      pop\n      pop\n      pop\n      jump\t// out\n        /* \"#utility.yul\":746:848   */\n    tag_33:\n        /* \"#utility.yul\":787:793   */\n      0x00\n        /* \"#utility.yul\":838:840   */\n      0x1f\n        /* \"#utility.yul\":834:841   */\n      not\n        /* \"#utility.yul\":829:831   */\n      0x1f\n        /* \"#utility.yul\":822:827   */\n      dup4\n        /* \"#utility.yul\":818:832   */\n      add\n        /* \"#utility.yul\":814:842   */\n      and\n        /* \"#utility.yul\":804:842   */\n      swap1\n      pop\n        /* \"#utility.yul\":746:848   */\n      swap2\n      swap1\n      pop\n      jump\t// out\n        /* \"#utility.yul\":854:1231   */\n    tag_34:\n        /* \"#utility.yul\":942:945   */\n      0x00\n        /* \"#utility.yul\":970:1009   */\n      tag_77\n        /* \"#utility.yul\":1003:1008   */\n      dup3\n        /* \"#utility.yul\":970:1009   */\n      tag_30\n      jump\t// in\n    tag_77:\n        /* \"#utility.yul\":1025:1096   */\n      tag_78\n        /* \"#utility.yul\":1089:1095   */\n      dup2\n        /* \"#utility.yul\":1084:1087   */\n      dup6\n        /* \"#utility.yul\":1025:1096   */\n      tag_31\n      jump\t// in\n    tag_78:\n        /* \"#utility.yul\":1018:1096   */\n      swap4\n      pop\n        /* \"#utility.yul\":1105:1170   */\n      tag_79\n        /* \"#utility.yul\":1163:1169   */\n      dup2\n        /* \"#utility.yul\":1158:1161   */\n      dup6\n        /* \"#utility.yul\":1151:1155   */\n      0x20\n        /* \"#utility.yul\":1144:1149   */\n      dup7\n        /* \"#utility.yul\":1140:1156   */\n      add\n        /* \"#utility.yul\":1105:1170   */\n      tag_32\n      jump\t// in\n    tag_79:\n        /* \"#utility.yul\":1195:1224   */\n      tag_80\n        /* \"#utility.yul\":1217:1223   */\n      dup2\n        /* \"#utility.yul\":1195:1224   */\n      tag_33\n      jump\t// in\n    tag_80:\n        /* \"#utility.yul\":1190:1193   */\n      dup5\n        /* \"#utility.yul\":1186:1225   */\n      add\n        /* \"#utility.yul\":1179:1225   */\n      swap2\n      pop\n        /* \"#utility.yul\":946:1231   */\n      pop\n        /* \"#utility.yul\":854:1231   */\n      swap3\n      swap2\n      pop\n      pop\n      jump\t// out\n        /* \"#utility.yul\":1237:1861   */\n    tag_8:\n        /* \"#utility.yul\":1426:1430   */\n      0x00\n        /* \"#utility.yul\":1464:1466   */\n      0x60\n        /* \"#utility.yul\":1453:1462   */\n      dup3\n        /* \"#utility.yul\":1449:1467   */\n      add\n        /* \"#utility.yul\":1441:1467   */\n      swap1\n      pop\n        /* \"#utility.yul\":1477:1548   */\n      tag_82\n        /* \"#utility.yul\":1545:1546   */\n      0x00\n        /* \"#utility.yul\":1534:1543   */\n      dup4\n        /* \"#utility.yul\":1530:1547   */\n      add\n        /* \"#utility.yul\":1521:1527   */\n      dup7\n        /* \"#utility.yul\":1477:1548   */\n      tag_29\n      jump\t// in\n    tag_82:\n        /* \"#utility.yul\":1595:1604   */\n      dup2\n        /* \"#utility.yul\":1589:1593   */\n      dup2\n        /* \"#utility.yul\":1585:1605   */\n      sub\n        /* \"#utility.yul\":1580:1582   */\n      0x20\n        /* \"#utility.yul\":1569:1578   */\n      dup4\n        /* \"#utility.yul\":1565:1583   */\n      add\n        /* \"#utility.yul\":1558:1606   */\n      mstore\n        /* \"#utility.yul\":1623:1701   */\n      tag_83\n        /* \"#utility.yul\":1696:1700   */\n      dup2\n        /* \"#utility.yul\":1687:1693   */\n      dup6\n        /* \"#utility.yul\":1623:1701   */\n      tag_34\n      jump\t// in\n    tag_83:\n        /* \"#utility.yul\":1615:1701   */\n      swap1\n      pop\n        /* \"#utility.yul\":1748:1757   */\n      dup2\n        /* \"#utility.yul\":1742:1746   */\n      dup2\n        /* \"#utility.yul\":1738:1758   */\n      sub\n        /* \"#utility.yul\":1733:1735   */\n      0x40\n        /* \"#utility.yul\":1722:1731   */\n      dup4\n        /* \"#utility.yul\":1718:1736   */\n      add\n        /* \"#utility.yul\":1711:1759   */\n      mstore\n        /* \"#utility.yul\":1776:1854   */\n      tag_84\n        /* \"#utility.yul\":1849:1853   */\n      dup2\n        /* \"#utility.yul\":1840:1846   */\n      dup5\n        /* \"#utility.yul\":1776:1854   */\n      tag_34\n      jump\t// in\n    tag_84:\n        /* \"#utility.yul\":1768:1854   */\n      swap1\n      pop\n        /* \"#utility.yul\":1237:1861   */\n      swap5\n      swap4\n      pop\n      pop\n      pop\n      pop\n      jump\t// out\n        /* \"#utility.yul\":1867:1942   */\n    tag_35:\n        /* \"#utility.yul\":1900:1906   */\n      0x00\n        /* \"#utility.yul\":1933:1935   */\n      0x40\n        /* \"#utility.yul\":1927:1936   */\n      mload\n        /* \"#utility.yul\":1917:1936   */\n      swap1\n      pop\n        /* \"#utility.yul\":1867:1942   */\n      swap1\n      jump\t// out\n        /* \"#utility.yul\":1948:2065   */\n    tag_36:\n        /* \"#utility.yul\":2057:2058   */\n      0x00\n        /* \"#utility.yul\":2054:2055   */\n      dup1\n        /* \"#utility.yul\":2047:2059   */\n      revert\n        /* \"#utility.yul\":2071:2188   */\n    tag_37:\n        /* \"#utility.yul\":2180:2181   */\n      0x00\n        /* \"#utility.yul\":2177:2178   */\n      dup1\n        /* \"#utility.yul\":2170:2182   */\n      revert\n        /* \"#utility.yul\":2194:2316   */\n    tag_38:\n        /* \"#utility.yul\":2267:2291   */\n      tag_89\n        /* \"#utility.yul\":2285:2290   */\n      dup2\n        /* \"#utility.yul\":2267:2291   */\n      tag_28\n      jump\t// in\n    tag_89:\n        /* \"#utility.yul\":2260:2265   */\n      dup2\n        /* \"#utility.yul\":2257:2292   */\n      eq\n        /* \"#utility.yul\":2247:2310   */\n      tag_90\n      jumpi\n        /* \"#utility.yul\":2306:2307   */\n      0x00\n        /* \"#utility.yul\":2303:2304   */\n      dup1\n        /* \"#utility.yul\":2296:2308   */\n      revert\n        /* \"#utility.yul\":2247:2310   */\n    tag_90:\n        /* \"#utility.yul\":2194:2316   */\n      pop\n      jump\t// out\n        /* \"#utility.yul\":2322:2461   */\n    tag_39:\n        /* \"#utility.yul\":2368:2373   */\n      0x00\n        /* \"#utility.yul\":2406:2412   */\n      dup2\n        /* \"#utility.yul\":2393:2413   */\n      calldataload\n        /* \"#utility.yul\":2384:2413   */\n      swap1\n      pop\n        /* \"#utility.yul\":2422:2455   */\n      tag_92\n        /* \"#utility.yul\":2449:2454   */\n      dup2\n        /* \"#utility.yul\":2422:2455   */\n      tag_38\n      jump\t// in\n    tag_92:\n        /* \"#utility.yul\":2322:2461   */\n      swap3\n      swap2\n      pop\n      pop\n      jump\t// out\n        /* \"#utility.yul\":2467:2584   */\n    tag_40:\n        /* \"#utility.yul\":2576:2577   */\n      0x00\n        /* \"#utility.yul\":2573:2574   */\n      dup1\n        /* \"#utility.yul\":2566:2578   */\n      revert\n        /* \"#utility.yul\":2590:2707   */\n    tag_41:\n        /* \"#utility.yul\":2699:2700   */\n      0x00\n        /* \"#utility.yul\":2696:2697   */\n      dup1\n        /* \"#utility.yul\":2689:2701   */\n      revert\n        /* \"#utility.yul\":2713:2893   */\n    tag_42:\n        /* \"#utility.yul\":2761:2838   */\n      0x4e487b7100000000000000000000000000000000000000000000000000000000\n        /* \"#utility.yul\":2758:2759   */\n      0x00\n        /* \"#utility.yul\":2751:2839   */\n      mstore\n        /* \"#utility.yul\":2858:2862   */\n      0x41\n        /* \"#utility.yul\":2855:2856   */\n      0x04\n        /* \"#utility.yul\":2848:2863   */\n      mstore\n        /* \"#utility.yul\":2882:2886   */\n      0x24\n        /* \"#utility.yul\":2879:2880   */\n      0x00\n        /* \"#utility.yul\":2872:2887   */\n      revert\n        /* \"#utility.yul\":2899:3180   */\n    tag_43:\n        /* \"#utility.yul\":2982:3009   */\n      tag_97\n        /* \"#utility.yul\":3004:3008   */\n      dup3\n        /* \"#utility.yul\":2982:3009   */\n      tag_33\n      jump\t// in\n    tag_97:\n        /* \"#utility.yul\":2974:2980   */\n      dup2\n        /* \"#utility.yul\":2970:3010   */\n      add\n        /* \"#utility.yul\":3112:3118   */\n      dup2\n        /* \"#utility.yul\":3100:3110   */\n      dup2\n        /* \"#utility.yul\":3097:3119   */\n      lt\n        /* \"#utility.yul\":3076:3094   */\n      0xffffffffffffffff\n        /* \"#utility.yul\":3064:3074   */\n      dup3\n        /* \"#utility.yul\":3061:3095   */\n      gt\n        /* \"#utility.yul\":3058:3120   */\n      or\n        /* \"#utility.yul\":3055:3143   */\n      iszero\n      tag_98\n      jumpi\n        /* \"#utility.yul\":3123:3141   */\n      tag_99\n      tag_42\n      jump\t// in\n    tag_99:\n        /* \"#utility.yul\":3055:3143   */\n    tag_98:\n        /* \"#utility.yul\":3163:3173   */\n      dup1\n        /* \"#utility.yul\":3159:3161   */\n      0x40\n        /* \"#utility.yul\":3152:3174   */\n      mstore\n        /* \"#utility.yul\":2942:3180   */\n      pop\n        /* \"#utility.yul\":2899:3180   */\n      pop\n      pop\n      jump\t// out\n        /* \"#utility.yul\":3186:3315   */\n    tag_44:\n        /* \"#utility.yul\":3220:3226   */\n      0x00\n        /* \"#utility.yul\":3247:3267   */\n      tag_101\n      tag_35\n      jump\t// in\n    tag_101:\n        /* \"#utility.yul\":3237:3267   */\n      swap1\n      pop\n        /* \"#utility.yul\":3276:3309   */\n      tag_102\n        /* \"#utility.yul\":3304:3308   */\n      dup3\n        /* \"#utility.yul\":3296:3302   */\n      dup3\n        /* \"#utility.yul\":3276:3309   */\n      tag_43\n      jump\t// in\n    tag_102:\n        /* \"#utility.yul\":3186:3315   */\n      swap2\n      swap1\n      pop\n      jump\t// out\n        /* \"#utility.yul\":3321:3629   */\n    tag_45:\n        /* \"#utility.yul\":3383:3387   */\n      0x00\n        /* \"#utility.yul\":3473:3491   */\n      0xffffffffffffffff\n        /* \"#utility.yul\":3465:3471   */\n      dup3\n        /* \"#utility.yul\":3462:3492   */\n      gt\n        /* \"#utility.yul\":3459:3515   */\n      iszero\n      tag_104\n      jumpi\n        /* \"#utility.yul\":3495:3513   */\n      tag_105\n      tag_42\n      jump\t// in\n    tag_105:\n        /* \"#utility.yul\":3459:3515   */\n    tag_104:\n        /* \"#utility.yul\":3533:3562   */\n      tag_106\n        /* \"#utility.yul\":3555:3561   */\n      dup3\n        /* \"#utility.yul\":3533:3562   */\n      tag_33\n      jump\t// in\n    tag_106:\n        /* \"#utility.yul\":3525:3562   */\n      swap1\n      pop\n        /* \"#utility.yul\":3617:3621   */\n      0x20\n        /* \"#utility.yul\":3611:3615   */\n      dup2\n        /* \"#utility.yul\":3607:3622   */\n      add\n        /* \"#utility.yul\":3599:3622   */\n      swap1\n      pop\n        /* \"#utility.yul\":3321:3629   */\n      swap2\n      swap1\n      pop\n      jump\t// out\n        /* \"#utility.yul\":3635:3781   */\n    tag_46:\n        /* \"#utility.yul\":3732:3738   */\n      dup3\n        /* \"#utility.yul\":3727:3730   */\n      dup2\n        /* \"#utility.yul\":3722:3725   */\n      dup4\n        /* \"#utility.yul\":3709:3739   */\n      calldatacopy\n        /* \"#utility.yul\":3773:3774   */\n      0x00\n        /* \"#utility.yul\":3764:3770   */\n      dup4\n        /* \"#utility.yul\":3759:3762   */\n      dup4\n        /* \"#utility.yul\":3755:3771   */\n      add\n        /* \"#utility.yul\":3748:3775   */\n      mstore\n        /* \"#utility.yul\":3635:3781   */\n      pop\n      pop\n      pop\n      jump\t// out\n        /* \"#utility.yul\":3787:4212   */\n    tag_47:\n        /* \"#utility.yul\":3865:3870   */\n      0x00\n        /* \"#utility.yul\":3890:3956   */\n      tag_109\n        /* \"#utility.yul\":3906:3955   */\n      tag_110\n        /* \"#utility.yul\":3948:3954   */\n      dup5\n        /* \"#utility.yul\":3906:3955   */\n      tag_45\n      jump\t// in\n    tag_110:\n        /* \"#utility.yul\":3890:3956   */\n      tag_44\n      jump\t// in\n    tag_109:\n        /* \"#utility.yul\":3881:3956   */\n      swap1\n      pop\n        /* \"#utility.yul\":3979:3985   */\n      dup3\n        /* \"#utility.yul\":3972:3977   */\n      dup2\n        /* \"#utility.yul\":3965:3986   */\n      mstore\n        /* \"#utility.yul\":4017:4021   */\n      0x20\n        /* \"#utility.yul\":4010:4015   */\n      dup2\n        /* \"#utility.yul\":4006:4022   */\n      add\n        /* \"#utility.yul\":4055:4058   */\n      dup5\n        /* \"#utility.yul\":4046:4052   */\n      dup5\n        /* \"#utility.yul\":4041:4044   */\n      dup5\n        /* \"#utility.yul\":4037:4053   */\n      add\n        /* \"#utility.yul\":4034:4059   */\n      gt\n        /* \"#utility.yul\":4031:4143   */\n      iszero\n      tag_111\n      jumpi\n        /* \"#utility.yul\":4062:4141   */\n      tag_112\n      tag_41\n      jump\t// in\n    tag_112:\n        /* \"#utility.yul\":4031:4143   */\n    tag_111:\n        /* \"#utility.yul\":4152:4206   */\n      tag_113\n        /* \"#utility.yul\":4199:4205   */\n      dup5\n        /* \"#utility.yul\":4194:4197   */\n      dup3\n        /* \"#utility.yul\":4189:4192   */\n      dup6\n        /* \"#utility.yul\":4152:4206   */\n      tag_46\n      jump\t// in\n    tag_113:\n        /* \"#utility.yul\":3871:4212   */\n      pop\n        /* \"#utility.yul\":3787:4212   */\n      swap4\n      swap3\n      pop\n      pop\n      pop\n      jump\t// out\n        /* \"#utility.yul\":4232:4572   */\n    tag_48:\n        /* \"#utility.yul\":4288:4293   */\n      0x00\n        /* \"#utility.yul\":4337:4340   */\n      dup3\n        /* \"#utility.yul\":4330:4334   */\n      0x1f\n        /* \"#utility.yul\":4322:4328   */\n      dup4\n        /* \"#utility.yul\":4318:4335   */\n      add\n        /* \"#utility.yul\":4314:4341   */\n      slt\n        /* \"#utility.yul\":4304:4426   */\n      tag_115\n      jumpi\n        /* \"#utility.yul\":4345:4424   */\n      tag_116\n      tag_40\n      jump\t// in\n    tag_116:\n        /* \"#utility.yul\":4304:4426   */\n    tag_115:\n        /* \"#utility.yul\":4462:4468   */\n      dup2\n        /* \"#utility.yul\":4449:4469   */\n      calldataload\n        /* \"#utility.yul\":4487:4566   */\n      tag_117\n        /* \"#utility.yul\":4562:4565   */\n      dup5\n        /* \"#utility.yul\":4554:4560   */\n      dup3\n        /* \"#utility.yul\":4547:4551   */\n      0x20\n        /* \"#utility.yul\":4539:4545   */\n      dup7\n        /* \"#utility.yul\":4535:4552   */\n      add\n        /* \"#utility.yul\":4487:4566   */\n      tag_47\n      jump\t// in\n    tag_117:\n        /* \"#utility.yul\":4478:4566   */\n      swap2\n      pop\n        /* \"#utility.yul\":4294:4572   */\n      pop\n        /* \"#utility.yul\":4232:4572   */\n      swap3\n      swap2\n      pop\n      pop\n      jump\t// out\n        /* \"#utility.yul\":4578:5557   */\n    tag_11:\n        /* \"#utility.yul\":4675:4681   */\n      0x00\n        /* \"#utility.yul\":4683:4689   */\n      dup1\n        /* \"#utility.yul\":4691:4697   */\n      0x00\n        /* \"#utility.yul\":4740:4742   */\n      0x60\n        /* \"#utility.yul\":4728:4737   */\n      dup5\n        /* \"#utility.yul\":4719:4726   */\n      dup7\n        /* \"#utility.yul\":4715:4738   */\n      sub\n        /* \"#utility.yul\":4711:4743   */\n      slt\n        /* \"#utility.yul\":4708:4827   */\n      iszero\n      tag_119\n      jumpi\n        /* \"#utility.yul\":4746:4825   */\n      tag_120\n      tag_36\n      jump\t// in\n    tag_120:\n        /* \"#utility.yul\":4708:4827   */\n    tag_119:\n        /* \"#utility.yul\":4866:4867   */\n      0x00\n        /* \"#utility.yul\":4891:4944   */\n      tag_121\n        /* \"#utility.yul\":4936:4943   */\n      dup7\n        /* \"#utility.yul\":4927:4933   */\n      dup3\n        /* \"#utility.yul\":4916:4925   */\n      dup8\n        /* \"#utility.yul\":4912:4934   */\n      add\n        /* \"#utility.yul\":4891:4944   */\n      tag_39\n      jump\t// in\n    tag_121:\n        /* \"#utility.yul\":4881:4944   */\n      swap4\n      pop\n        /* \"#utility.yul\":4837:4954   */\n      pop\n        /* \"#utility.yul\":5021:5023   */\n      0x20\n        /* \"#utility.yul\":5010:5019   */\n      dup5\n        /* \"#utility.yul\":5006:5024   */\n      add\n        /* \"#utility.yul\":4993:5025   */\n      calldataload\n        /* \"#utility.yul\":5052:5070   */\n      0xffffffffffffffff\n        /* \"#utility.yul\":5044:5050   */\n      dup2\n        /* \"#utility.yul\":5041:5071   */\n      gt\n        /* \"#utility.yul\":5038:5155   */\n      iszero\n      tag_122\n      jumpi\n        /* \"#utility.yul\":5074:5153   */\n      tag_123\n      tag_37\n      jump\t// in\n    tag_123:\n        /* \"#utility.yul\":5038:5155   */\n    tag_122:\n        /* \"#utility.yul\":5179:5242   */\n      tag_124\n        /* \"#utility.yul\":5234:5241   */\n      dup7\n        /* \"#utility.yul\":5225:5231   */\n      dup3\n        /* \"#utility.yul\":5214:5223   */\n      dup8\n        /* \"#utility.yul\":5210:5232   */\n      add\n        /* \"#utility.yul\":5179:5242   */\n      tag_48\n      jump\t// in\n    tag_124:\n        /* \"#utility.yul\":5169:5242   */\n      swap3\n      pop\n        /* \"#utility.yul\":4964:5252   */\n      pop\n        /* \"#utility.yul\":5319:5321   */\n      0x40\n        /* \"#utility.yul\":5308:5317   */\n      dup5\n        /* \"#utility.yul\":5304:5322   */\n      add\n        /* \"#utility.yul\":5291:5323   */\n      calldataload\n        /* \"#utility.yul\":5350:5368   */\n      0xffffffffffffffff\n        /* \"#utility.yul\":5342:5348   */\n      dup2\n        /* \"#utility.yul\":5339:5369   */\n      gt\n        /* \"#utility.yul\":5336:5453   */\n      iszero\n      tag_125\n      jumpi\n        /* \"#utility.yul\":5372:5451   */\n      tag_126\n      tag_37\n      jump\t// in\n    tag_126:\n        /* \"#utility.yul\":5336:5453   */\n    tag_125:\n        /* \"#utility.yul\":5477:5540   */\n      tag_127\n        /* \"#utility.yul\":5532:5539   */\n      dup7\n        /* \"#utility.yul\":5523:5529   */\n      dup3\n        /* \"#utility.yul\":5512:5521   */\n      dup8\n        /* \"#utility.yul\":5508:5530   */\n      add\n        /* \"#utility.yul\":5477:5540   */\n      tag_48\n      jump\t// in\n    tag_127:\n        /* \"#utility.yul\":5467:5540   */\n      swap2\n      pop\n        /* \"#utility.yul\":5262:5550   */\n      pop\n        /* \"#utility.yul\":4578:5557   */\n      swap3\n      pop\n      swap3\n      pop\n      swap3\n      jump\t// out\n        /* \"#utility.yul\":5563:5743   */\n    tag_49:\n        /* \"#utility.yul\":5611:5688   */\n      0x4e487b7100000000000000000000000000000000000000000000000000000000\n        /* \"#utility.yul\":5608:5609   */\n      0x00\n        /* \"#utility.yul\":5601:5689   */\n      mstore\n        /* \"#utility.yul\":5708:5712   */\n      0x22\n        /* \"#utility.yul\":5705:5706   */\n      0x04\n        /* \"#utility.yul\":5698:5713   */\n      mstore\n        /* \"#utility.yul\":5732:5736   */\n      0x24\n        /* \"#utility.yul\":5729:5730   */\n      0x00\n        /* \"#utility.yul\":5722:5737   */\n      revert\n        /* \"#utility.yul\":5749:6069   */\n    tag_14:\n        /* \"#utility.yul\":5793:5799   */\n      0x00\n        /* \"#utility.yul\":5830:5831   */\n      0x02\n        /* \"#utility.yul\":5824:5828   */\n      dup3\n        /* \"#utility.yul\":5820:5832   */\n      div\n        /* \"#utility.yul\":5810:5832   */\n      swap1\n      pop\n        /* \"#utility.yul\":5877:5878   */\n      0x01\n        /* \"#utility.yul\":5871:5875   */\n      dup3\n        /* \"#utility.yul\":5867:5879   */\n      and\n        /* \"#utility.yul\":5898:5916   */\n      dup1\n        /* \"#utility.yul\":5888:5969   */\n      tag_130\n      jumpi\n        /* \"#utility.yul\":5954:5958   */\n      0x7f\n        /* \"#utility.yul\":5946:5952   */\n      dup3\n        /* \"#utility.yul\":5942:5959   */\n      and\n        /* \"#utility.yul\":5932:5959   */\n      swap2\n      pop\n        /* \"#utility.yul\":5888:5969   */\n    tag_130:\n        /* \"#utility.yul\":6016:6018   */\n      0x20\n        /* \"#utility.yul\":6008:6014   */\n      dup3\n        /* \"#utility.yul\":6005:6019   */\n      lt\n        /* \"#utility.yul\":5985:6003   */\n      dup2\n        /* \"#utility.yul\":5982:6020   */\n      sub\n        /* \"#utility.yul\":5979:6063   */\n      tag_131\n      jumpi\n        /* \"#utility.yul\":6035:6053   */\n      tag_132\n      tag_49\n      jump\t// in\n    tag_132:\n        /* \"#utility.yul\":5979:6063   */\n    tag_131:\n        /* \"#utility.yul\":5800:6069   */\n      pop\n        /* \"#utility.yul\":5749:6069   */\n      swap2\n      swap1\n      pop\n      jump\t// out\n        /* \"#utility.yul\":6075:6216   */\n    tag_50:\n        /* \"#utility.yul\":6124:6128   */\n      0x00\n        /* \"#utility.yul\":6147:6150   */\n      dup2\n        /* \"#utility.yul\":6139:6150   */\n      swap1\n      pop\n        /* \"#utility.yul\":6170:6173   */\n      dup2\n        /* \"#utility.yul\":6167:6168   */\n      0x00\n        /* \"#utility.yul\":6160:6174   */\n      mstore\n        /* \"#utility.yul\":6204:6208   */\n      0x20\n        /* \"#utility.yul\":6201:6202   */\n      0x00\n        /* \"#utility.yul\":6191:6209   */\n      keccak256\n        /* \"#utility.yul\":6183:6209   */\n      swap1\n      pop\n        /* \"#utility.yul\":6075:6216   */\n      swap2\n      swap1\n      pop\n      jump\t// out\n        /* \"#utility.yul\":6222:6315   */\n    tag_51:\n        /* \"#utility.yul\":6259:6265   */\n      0x00\n        /* \"#utility.yul\":6306:6308   */\n      0x20\n        /* \"#utility.yul\":6301:6303   */\n      0x1f\n        /* \"#utility.yul\":6294:6299   */\n      dup4\n        /* \"#utility.yul\":6290:6304   */\n      add\n        /* \"#utility.yul\":6286:6309   */\n      div\n        /* \"#utility.yul\":6276:6309   */\n      swap1\n      pop\n        /* \"#utility.yul\":6222:6315   */\n      swap2\n      swap1\n      pop\n      jump\t// out\n        /* \"#utility.yul\":6321:6428   */\n    tag_52:\n        /* \"#utility.yul\":6365:6373   */\n      0x00\n        /* \"#utility.yul\":6415:6420   */\n      dup3\n        /* \"#utility.yul\":6409:6413   */\n      dup3\n        /* \"#utility.yul\":6405:6421   */\n      shl\n        /* \"#utility.yul\":6384:6421   */\n      swap1\n      pop\n        /* \"#utility.yul\":6321:6428   */\n      swap3\n      swap2\n      pop\n      pop\n      jump\t// out\n        /* \"#utility.yul\":6434:6827   */\n    tag_53:\n        /* \"#utility.yul\":6503:6509   */\n      0x00\n        /* \"#utility.yul\":6553:6554   */\n      0x08\n        /* \"#utility.yul\":6541:6551   */\n      dup4\n        /* \"#utility.yul\":6537:6555   */\n      mul\n        /* \"#utility.yul\":6576:6673   */\n      tag_137\n        /* \"#utility.yul\":6606:6672   */\n      0xffffffffffffffffffffffffffffffffffffffffffffffffffffffffffffffff\n        /* \"#utility.yul\":6595:6604   */\n      dup3\n        /* \"#utility.yul\":6576:6673   */\n      tag_52\n      jump\t// in\n    tag_137:\n        /* \"#utility.yul\":6694:6733   */\n      tag_138\n        /* \"#utility.yul\":6724:6732   */\n      dup7\n        /* \"#utility.yul\":6713:6722   */\n      dup4\n        /* \"#utility.yul\":6694:6733   */\n      tag_52\n      jump\t// in\n    tag_138:\n        /* \"#utility.yul\":6682:6733   */\n      swap6\n      pop\n        /* \"#utility.yul\":6766:6770   */\n      dup1\n        /* \"#utility.yul\":6762:6771   */\n      not\n        /* \"#utility.yul\":6755:6760   */\n      dup5\n        /* \"#utility.yul\":6751:6772   */\n      and\n        /* \"#utility.yul\":6742:6772   */\n      swap4\n      pop\n        /* \"#utility.yul\":6815:6819   */\n      dup1\n        /* \"#utility.yul\":6805:6813   */\n      dup7\n        /* \"#utility.yul\":6801:6820   */\n      and\n        /* \"#utility.yul\":6794:6799   */\n      dup5\n        /* \"#utility.yul\":6791:6821   */\n      or\n        /* \"#utility.yul\":6781:6821   */\n      swap3\n      pop\n        /* \"#utility.yul\":6510:6827   */\n      pop\n      pop\n        /* \"#utility.yul\":6434:6827   */\n      swap4\n      swap3\n      pop\n      pop\n      pop\n      jump\t// out\n        /* \"#utility.yul\":6833:6893   */\n    tag_54:\n        /* \"#utility.yul\":6861:6864   */\n      0x00\n        /* \"#utility.yul\":6882:6887   */\n      dup2\n        /* \"#utility.yul\":6875:6887   */\n      swap1\n      pop\n        /* \"#utility.yul\":6833:6893   */\n      swap2\n      swap1\n      pop\n      jump\t// out\n        /* \"#utility.yul\":6899:7041   */\n    tag_55:\n        /* \"#utility.yul\":6949:6958   */\n      0x00\n        /* \"#utility.yul\":6982:7035   */\n      tag_141\n        /* \"#utility.yul\":7000:7034   */\n      tag_142\n        /* \"#utility.yul\":7009:7033   */\n      tag_143\n        /* \"#utility.yul\":7027:7032   */\n      dup5\n        /* \"#utility.yul\":7009:7033   */\n      tag_28\n      jump\t// in\n    tag_143:\n        /* \"#utility.yul\":7000:7034   */\n      tag_54\n      jump\t// in\n    tag_142:\n        /* \"#utility.yul\":6982:7035   */\n      tag_28\n      jump\t// in\n    tag_141:\n        /* \"#utility.yul\":6969:7035   */\n      swap1\n      pop\n        /* \"#utility.yul\":6899:7041   */\n      swap2\n      swap1\n      pop\n      jump\t// out\n        /* \"#utility.yul\":7047:7122   */\n    tag_56:\n        /* \"#utility.yul\":7090:7093   */\n      0x00\n        /* \"#utility.yul\":7111:7116   */\n      dup2\n        /* \"#utility.yul\":7104:7116   */\n      swap1\n      pop\n        /* \"#utility.yul\":7047:7122   */\n      swap2\n      swap1\n      pop\n      jump\t// out\n        /* \"#utility.yul\":7128:7397   */\n    tag_57:\n        /* \"#utility.yul\":7238:7277   */\n      tag_146\n        /* \"#utility.yul\":7269:7276   */\n      dup4\n        /* \"#utility.yul\":7238:7277   */\n      tag_55\n      jump\t// in\n    tag_146:\n        /* \"#utility.yul\":7299:7390   */\n      tag_147\n        /* \"#utility.yul\":7348:7389   */\n      tag_148\n        /* \"#utility.yul\":7372:7388   */\n      dup3\n        /* \"#utility.yul\":7348:7389   */\n      tag_56\n      jump\t// in\n    tag_148:\n        /* \"#utility.yul\":7340:7346   */\n      dup5\n        /* \"#utility.yul\":7333:7337   */\n      dup5\n        /* \"#utility.yul\":7327:7338   */\n      sload\n        /* \"#utility.yul\":7299:7390   */\n      tag_53\n      jump\t// in\n    tag_147:\n        /* \"#utility.yul\":7293:7297   */\n      dup3\n        /* \"#utility.yul\":7286:7391   */\n      sstore\n        /* \"#utility.yul\":7204:7397   */\n      pop\n        /* \"#utility.yul\":7128:7397   */\n      pop\n      pop\n      pop\n      jump\t// out\n        /* \"#utility.yul\":7403:7476   */\n    tag_58:\n        /* \"#utility.yul\":7448:7451   */\n      0x00\n        /* \"#utility.yul\":7403:7476   */\n      swap1\n      jump\t// out\n        /* \"#utility.yul\":7482:7671   */\n    tag_59:\n        /* \"#utility.yul\":7559:7591   */\n      tag_151\n      tag_58\n      jump\t// in\n    tag_151:\n        /* \"#utility.yul\":7600:7665   */\n      tag_152\n        /* \"#utility.yul\":7658:7664   */\n      dup2\n        /* \"#utility.yul\":7650:7656   */\n      dup5\n        /* \"#utility.yul\":7644:7648   */\n      dup5\n        /* \"#utility.yul\":7600:7665   */\n      tag_57\n      jump\t// in\n    tag_152:\n        /* \"#utility.yul\":7535:7671   */\n      pop\n        /* \"#utility.yul\":7482:7671   */\n      pop\n      pop\n      jump\t// out\n        /* \"#utility.yul\":7677:7863   */\n    tag_60:\n        /* \"#utility.yul\":7737:7857   */\n    tag_154:\n        /* \"#utility.yul\":7754:7757   */\n      dup2\n        /* \"#utility.yul\":7747:7752   */\n      dup2\n        /* \"#utility.yul\":7744:7758   */\n      lt\n        /* \"#utility.yul\":7737:7857   */\n      iszero\n      tag_156\n      jumpi\n        /* \"#utility.yul\":7808:7847   */\n      tag_157\n        /* \"#utility.yul\":7845:7846   */\n      0x00\n        /* \"#utility.yul\":7838:7843   */\n      dup3\n        /* \"#utility.yul\":7808:7847   */\n      tag_59\n      jump\t// in\n    tag_157:\n        /* \"#utility.yul\":7781:7782   */\n      0x01\n        /* \"#utility.yul\":7774:7779   */\n      dup2\n        /* \"#utility.yul\":7770:7783   */\n      add\n        /* \"#utility.yul\":7761:7783   */\n      swap1\n      pop\n        /* \"#utility.yul\":7737:7857   */\n      jump(tag_154)\n    tag_156:\n        /* \"#utility.yul\":7677:7863   */\n      pop\n      pop\n      jump\t// out\n        /* \"#utility.yul\":7869:8412   */\n    tag_61:\n        /* \"#utility.yul\":7970:7972   */\n      0x1f\n        /* \"#utility.yul\":7965:7968   */\n      dup3\n        /* \"#utility.yul\":7962:7973   */\n      gt\n        /* \"#utility.yul\":7959:8405   */\n      iszero\n      tag_159\n      jumpi\n        /* \"#utility.yul\":8004:8042   */\n      tag_160\n        /* \"#utility.yul\":8036:8041   */\n      dup2\n        /* \"#utility.yul\":8004:8042   */\n      tag_50\n      jump\t// in\n    tag_160:\n        /* \"#utility.yul\":8088:8117   */\n      tag_161\n        /* \"#utility.yul\":8106:8116   */\n      dup5\n        /* \"#utility.yul\":8088:8117   */\n      tag_51\n      jump\t// in\n    tag_161:\n        /* \"#utility.yul\":8078:8086   */\n      dup2\n        /* \"#utility.yul\":8074:8118   */\n      add\n        /* \"#utility.yul\":8271:8273   */\n      0x20\n        /* \"#utility.yul\":8259:8269   */\n      dup6\n        /* \"#utility.yul\":8256:8274   */\n      lt\n        /* \"#utility.yul\":8253:8302   */\n      iszero\n      tag_162\n      jumpi\n        /* \"#utility.yul\":8292:8300   */\n      dup2\n        /* \"#utility.yul\":8277:8300   */\n      swap1\n      pop\n        /* \"#utility.yul\":8253:8302   */\n    tag_162:\n        /* \"#utility.yul\":8315:8395   */\n      tag_163\n        /* \"#utility.yul\":8371:8393   */\n      tag_164\n        /* \"#utility.yul\":8389:8392   */\n      dup6\n        /* \"#utility.yul\":8371:8393   */\n      tag_51\n      jump\t// in\n    tag_164:\n        /* \"#utility.yul\":8361:8369   */\n      dup4\n        /* \"#utility.yul\":8357:8394   */\n      add\n        /* \"#utility.yul\":8344:8355   */\n      dup3\n        /* \"#utility.yul\":8315:8395   */\n      tag_60\n      jump\t// in\n    tag_163:\n        /* \"#utility.yul\":7974:8405   */\n      pop\n      pop\n        /* \"#utility.yul\":7959:8405   */\n    tag_159:\n        /* \"#utility.yul\":7869:8412   */\n      pop\n      pop\n      pop\n      jump\t// out\n        /* \"#utility.yul\":8418:8535   */\n    tag_62:\n        /* \"#utility.yul\":8472:8480   */\n      0x00\n        /* \"#utility.yul\":8522:8527   */\n      dup3\n        /* \"#utility.yul\":8516:8520   */\n      dup3\n        /* \"#utility.yul\":8512:8528   */\n      shr\n        /* \"#utility.yul\":8491:8528   */\n      swap1\n      pop\n        /* \"#utility.yul\":8418:8535   */\n      swap3\n      swap2\n      pop\n      pop\n      jump\t// out\n        /* \"#utility.yul\":8541:8710   */\n    tag_63:\n        /* \"#utility.yul\":8585:8591   */\n      0x00\n        /* \"#utility.yul\":8618:8669   */\n      tag_167\n        /* \"#utility.yul\":8666:8667   */\n      0x00\n        /* \"#utility.yul\":8662:8668   */\n      not\n        /* \"#utility.yul\":8654:8659   */\n      dup5\n        /* \"#utility.yul\":8651:8652   */\n      0x08\n        /* \"#utility.yul\":8647:8660   */\n      mul\n        /* \"#utility.yul\":8618:8669   */\n      tag_62\n      jump\t// in\n    tag_167:\n        /* \"#utility.yul\":8614:8670   */\n      not\n        /* \"#utility.yul\":8699:8703   */\n      dup1\n        /* \"#utility.yul\":8693:8697   */\n      dup4\n        /* \"#utility.yul\":8689:8704   */\n      and\n        /* \"#utility.yul\":8679:8704   */\n      swap2\n      pop\n        /* \"#utility.yul\":8592:8710   */\n      pop\n        /* \"#utility.yul\":8541:8710   */\n      swap3\n      swap2\n      pop\n      pop\n      jump\t// out\n        /* \"#utility.yul\":8715:9010   */\n    tag_64:\n        /* \"#utility.yul\":8791:8795   */\n      0x00\n        /* \"#utility.yul\":8937:8966   */\n      tag_169\n        /* \"#utility.yul\":8962:8965   */\n      dup4\n        /* \"#utility.yul\":8956:8960   */\n      dup4\n        /* \"#utility.yul\":8937:8966   */\n      tag_63\n      jump\t// in\n    tag_169:\n        /* \"#utility.yul\":8929:8966   */\n      swap2\n      pop\n        /* \"#utility.yul\":8999:9002   */\n      dup3\n        /* \"#utility.yul\":8996:8997   */\n      0x02\n        /* \"#utility.yul\":8992:9003   */\n      mul\n        /* \"#utility.yul\":8986:8990   */\n      dup3\n        /* \"#utility.yul\":8983:9004   */\n      or\n        /* \"#utility.yul\":8975:9004   */\n      swap1\n      pop\n        /* \"#utility.yul\":8715:9010   */\n      swap3\n      swap2\n      pop\n      pop\n      jump\t// out\n        /* \"#utility.yul\":9015:10410   */\n    tag_26:\n        /* \"#utility.yul\":9132:9169   */\n      tag_171\n        /* \"#utility.yul\":9165:9168   */\n      dup3\n        /* \"#utility.yul\":9132:9169   */\n      tag_30\n      jump\t// in\n    tag_171:\n        /* \"#utility.yul\":9234:9252   */\n      0xffffffffffffffff\n        /* \"#utility.yul\":9226:9232   */\n      dup2\n        /* \"#utility.yul\":9223:9253   */\n      gt\n        /* \"#utility.yul\":9220:9276   */\n      iszero\n      tag_172\n      jumpi\n        /* \"#utility.yul\":9256:9274   */\n      tag_173\n      tag_42\n      jump\t// in\n    tag_173:\n        /* \"#utility.yul\":9220:9276   */\n    tag_172:\n        /* \"#utility.yul\":9300:9338   */\n      tag_174\n        /* \"#utility.yul\":9332:9336   */\n      dup3\n        /* \"#utility.yul\":9326:9337   */\n      sload\n        /* \"#utility.yul\":9300:9338   */\n      tag_14\n      jump\t// in\n    tag_174:\n        /* \"#utility.yul\":9385:9452   */\n      tag_175\n        /* \"#utility.yul\":9445:9451   */\n      dup3\n        /* \"#utility.yul\":9437:9443   */\n      dup3\n        /* \"#utility.yul\":9431:9435   */\n      dup6\n        /* \"#utility.yul\":9385:9452   */\n      tag_61\n      jump\t// in\n    tag_175:\n        /* \"#utility.yul\":9479:9480   */\n      0x00\n        /* \"#utility.yul\":9503:9507   */\n      0x20\n        /* \"#utility.yul\":9490:9507   */\n      swap1\n      pop\n        /* \"#utility.yul\":9535:9537   */\n      0x1f\n        /* \"#utility.yul\":9527:9533   */\n      dup4\n        /* \"#utility.yul\":9524:9538   */\n      gt\n        /* \"#utility.yul\":9552:9553   */\n      0x01\n        /* \"#utility.yul\":9547:10165   */\n      dup2\n      eq\n      tag_177\n      jumpi\n        /* \"#utility.yul\":10209:10210   */\n      0x00\n        /* \"#utility.yul\":10226:10232   */\n      dup5\n        /* \"#utility.yul\":10223:10300   */\n      iszero\n      tag_178\n      jumpi\n        /* \"#utility.yul\":10275:10284   */\n      dup3\n        /* \"#utility.yul\":10270:10273   */\n      dup8\n        /* \"#utility.yul\":10266:10285   */\n      add\n        /* \"#utility.yul\":10260:10286   */\n      mload\n        /* \"#utility.yul\":10251:10286   */\n      swap1\n      pop\n        /* \"#utility.yul\":10223:10300   */\n    tag_178:\n        /* \"#utility.yul\":10326:10393   */\n      tag_179\n        /* \"#utility.yul\":10386:10392   */\n      dup6\n        /* \"#utility.yul\":10379:10384   */\n      dup3\n        /* \"#utility.yul\":10326:10393   */\n      tag_64\n      jump\t// in\n    tag_179:\n        /* \"#utility.yul\":10320:10324   */\n      dup7\n        /* \"#utility.yul\":10313:10394   */\n      sstore\n        /* \"#utility.yul\":10182:10404   */\n      pop\n        /* \"#utility.yul\":9517:10404   */\n      jump(tag_176)\n        /* \"#utility.yul\":9547:10165   */\n    tag_177:\n        /* \"#utility.yul\":9599:9603   */\n      0x1f\n        /* \"#utility.yul\":9595:9604   */\n      not\n        /* \"#utility.yul\":9587:9593   */\n      dup5\n        /* \"#utility.yul\":9583:9605   */\n      and\n        /* \"#utility.yul\":9633:9670   */\n      tag_180\n        /* \"#utility.yul\":9665:9669   */\n      dup7\n        /* \"#utility.yul\":9633:9670   */\n      tag_50\n      jump\t// in\n    tag_180:\n        /* \"#utility.yul\":9692:9693   */\n      0x00\n        /* \"#utility.yul\":9706:9914   */\n    tag_181:\n        /* \"#utility.yul\":9720:9727   */\n      dup3\n        /* \"#utility.yul\":9717:9718   */\n      dup2\n        /* \"#utility.yul\":9714:9728   */\n      lt\n        /* \"#utility.yul\":9706:9914   */\n      iszero\n      tag_183\n      jumpi\n        /* \"#utility.yul\":9799:9808   */\n      dup5\n        /* \"#utility.yul\":9794:9797   */\n      dup10\n        /* \"#utility.yul\":9790:9809   */\n      add\n        /* \"#utility.yul\":9784:9810   */\n      mload\n        /* \"#utility.yul\":9776:9782   */\n      dup3\n        /* \"#utility.yul\":9769:9811   */\n      sstore\n        /* \"#utility.yul\":9850:9851   */\n      0x01\n        /* \"#utility.yul\":9842:9848   */\n      dup3\n        /* \"#utility.yul\":9838:9852   */\n      add\n        /* \"#utility.yul\":9828:9852   */\n      swap2\n      pop\n        /* \"#utility.yul\":9897:9899   */\n      0x20\n        /* \"#utility.yul\":9886:9895   */\n      dup6\n        /* \"#utility.yul\":9882:9900   */\n      add\n        /* \"#utility.yul\":9869:9900   */\n      swap5\n      pop\n        /* \"#utility.yul\":9743:9747   */\n      0x20\n        /* \"#utility.yul\":9740:9741   */\n      dup2\n        /* \"#utility.yul\":9736:9748   */\n      add\n        /* \"#utility.yul\":9731:9748   */\n      swap1\n      pop\n        /* \"#utility.yul\":9706:9914   */\n      jump(tag_181)\n    tag_183:\n        /* \"#utility.yul\":9942:9948   */\n      dup7\n        /* \"#utility.yul\":9933:9940   */\n      dup4\n        /* \"#utility.yul\":9930:9949   */\n      lt\n        /* \"#utility.yul\":9927:10106   */\n      iszero\n      tag_184\n      jumpi\n        /* \"#utility.yul\":10000:10009   */\n      dup5\n        /* \"#utility.yul\":9995:9998   */\n      dup10\n        /* \"#utility.yul\":9991:10010   */\n      add\n        /* \"#utility.yul\":9985:10011   */\n      mload\n        /* \"#utility.yul\":10043:10091   */\n      tag_185\n        /* \"#utility.yul\":10085:10089   */\n      0x1f\n        /* \"#utility.yul\":10077:10083   */\n      dup10\n        /* \"#utility.yul\":10073:10090   */\n      and\n        /* \"#utility.yul\":10062:10071   */\n      dup3\n        /* \"#utility.yul\":10043:10091   */\n      tag_63\n      jump\t// in\n    tag_185:\n        /* \"#utility.yul\":10035:10041   */\n      dup4\n        /* \"#utility.yul\":10028:10092   */\n      sstore\n        /* \"#utility.yul\":9950:10106   */\n      pop\n        /* \"#utility.yul\":9927:10106   */\n    tag_184:\n        /* \"#utility.yul\":10152:10153   */\n      0x01\n        /* \"#utility.yul\":10148:10149   */\n      0x02\n        /* \"#utility.yul\":10140:10146   */\n      dup9\n        /* \"#utility.yul\":10136:10150   */\n      mul\n        /* \"#utility.yul\":10132:10154   */\n      add\n        /* \"#utility.yul\":10126:10130   */\n      dup9\n        /* \"#utility.yul\":10119:10155   */\n      sstore\n        /* \"#utility.yul\":9554:10165   */\n      pop\n      pop\n      pop\n        /* \"#utility.yul\":9517:10404   */\n    tag_176:\n      pop\n        /* \"#utility.yul\":9107:10410   */\n      pop\n      pop\n      pop\n        /* \"#utility.yul\":9015:10410   */\n      pop\n      pop\n      jump\t// out\n\n    auxdata: 0xa2646970667358221220eea388078e63f1bca0bb5db65d5479de50ddfd99bb0fd50e234e06c0d035257764736f6c63430008120033\n}\n",
				"bytecode": {
					"linkReferences": {},
					"object": "60806040523480156200001157600080fd5b5060405162000e1438038062000e14833981810160405281019062000037919062000241565b82600080018190555081600060010190816200005491906200051c565b5080600060020190816200006991906200051c565b5050505062000603565b6000604051905090565b600080fd5b600080fd5b6000819050919050565b6200009c8162000087565b8114620000a857600080fd5b50565b600081519050620000bc8162000091565b92915050565b600080fd5b600080fd5b6000601f19601f8301169050919050565b7f4e487b7100000000000000000000000000000000000000000000000000000000600052604160045260246000fd5b6200011782620000cc565b810181811067ffffffffffffffff82111715620001395762000138620000dd565b5b80604052505050565b60006200014e62000073565b90506200015c82826200010c565b919050565b600067ffffffffffffffff8211156200017f576200017e620000dd565b5b6200018a82620000cc565b9050602081019050919050565b60005b83811015620001b75780820151818401526020810190506200019a565b60008484015250505050565b6000620001da620001d48462000161565b62000142565b905082815260208101848484011115620001f957620001f8620000c7565b5b6200020684828562000197565b509392505050565b600082601f830112620002265762000225620000c2565b5b815162000238848260208601620001c3565b91505092915050565b6000806000606084860312156200025d576200025c6200007d565b5b60006200026d86828701620000ab565b935050602084015167ffffffffffffffff81111562000291576200029062000082565b5b6200029f868287016200020e565b925050604084015167ffffffffffffffff811115620002c357620002c262000082565b5b620002d1868287016200020e565b9150509250925092565b600081519050919050565b7f4e487b7100000000000000000000000000000000000000000000000000000000600052602260045260246000fd5b600060028204905060018216806200032e57607f821691505b602082108103620003445762000343620002e6565b5b50919050565b60008190508160005260206000209050919050565b60006020601f8301049050919050565b600082821b905092915050565b600060088302620003ae7fffffffffffffffffffffffffffffffffffffffffffffffffffffffffffffffff826200036f565b620003ba86836200036f565b95508019841693508086168417925050509392505050565b6000819050919050565b6000620003fd620003f7620003f18462000087565b620003d2565b62000087565b9050919050565b6000819050919050565b6200041983620003dc565b62000431620004288262000404565b8484546200037c565b825550505050565b600090565b6200044862000439565b620004558184846200040e565b505050565b5b818110156200047d57620004716000826200043e565b6001810190506200045b565b5050565b601f821115620004cc5762000496816200034a565b620004a1846200035f565b81016020851015620004b1578190505b620004c9620004c0856200035f565b8301826200045a565b50505b505050565b600082821c905092915050565b6000620004f160001984600802620004d1565b1980831691505092915050565b60006200050c8383620004de565b9150826002028217905092915050565b6200052782620002db565b67ffffffffffffffff811115620005435762000542620000dd565b5b6200054f825462000315565b6200055c82828562000481565b600060209050601f8311600181146200059457600084156200057f578287015190505b6200058b8582620004fe565b865550620005fb565b601f198416620005a4866200034a565b60005b82811015620005ce57848901518255600182019150602085019450602081019050620005a7565b86831015620005ee5784890151620005ea601f891682620004de565b8355505b6001600288020188555050505b505050505050565b61080180620006136000396000f3fe608060405234801561001057600080fd5b50600436106100365760003560e01c8063b34fad411461003b578063c30691f71461005b575b600080fd5b610043610077565b604051610052939291906102a8565b60405180910390f35b61007560048036038101906100709190610462565b61019f565b005b600080600001549080600101805461008e9061051c565b80601f01602080910402602001604051908101604052809291908181526020018280546100ba9061051c565b80156101075780601f106100dc57610100808354040283529160200191610107565b820191906000526020600020905b8154815290600101906020018083116100ea57829003601f168201915b50505050509080600201805461011c9061051c565b80601f01602080910402602001604051908101604052809291908181526020018280546101489061051c565b80156101955780601f1061016a57610100808354040283529160200191610195565b820191906000526020600020905b81548152906001019060200180831161017857829003601f168201915b5050505050905083565b6000604051806060016040528085815260200184815260200183815250905080600080820151816000015560208201518160010190816101df91906106f9565b5060408201518160020190816101f591906106f9565b5090505050505050565b6000819050919050565b610212816101ff565b82525050565b600081519050919050565b600082825260208201905092915050565b60005b83811015610252578082015181840152602081019050610237565b60008484015250505050565b6000601f19601f8301169050919050565b600061027a82610218565b6102848185610223565b9350610294818560208601610234565b61029d8161025e565b840191505092915050565b60006060820190506102bd6000830186610209565b81810360208301526102cf818561026f565b905081810360408301526102e3818461026f565b9050949350505050565b6000604051905090565b600080fd5b600080fd5b61030a816101ff565b811461031557600080fd5b50565b60008135905061032781610301565b92915050565b600080fd5b600080fd5b7f4e487b7100000000000000000000000000000000000000000000000000000000600052604160045260246000fd5b61036f8261025e565b810181811067ffffffffffffffff8211171561038e5761038d610337565b5b80604052505050565b60006103a16102ed565b90506103ad8282610366565b919050565b600067ffffffffffffffff8211156103cd576103cc610337565b5b6103d68261025e565b9050602081019050919050565b82818337600083830152505050565b6000610405610400846103b2565b610397565b90508281526020810184848401111561042157610420610332565b5b61042c8482856103e3565b509392505050565b600082601f8301126104495761044861032d565b5b81356104598482602086016103f2565b91505092915050565b60008060006060848603121561047b5761047a6102f7565b5b600061048986828701610318565b935050602084013567ffffffffffffffff8111156104aa576104a96102fc565b5b6104b686828701610434565b925050604084013567ffffffffffffffff8111156104d7576104d66102fc565b5b6104e386828701610434565b9150509250925092565b7f4e487b7100000000000000000000000000000000000000000000000000000000600052602260045260246000fd5b6000600282049050600182168061053457607f821691505b602082108103610547576105466104ed565b5b50919050565b60008190508160005260206000209050919050565b60006020601f8301049050919050565b600082821b905092915050565b6000600883026105af7fffffffffffffffffffffffffffffffffffffffffffffffffffffffffffffffff82610572565b6105b98683610572565b95508019841693508086168417925050509392505050565b6000819050919050565b60006105f66105f16105ec846101ff565b6105d1565b6101ff565b9050919050565b6000819050919050565b610610836105db565b61062461061c826105fd565b84845461057f565b825550505050565b600090565b61063961062c565b610644818484610607565b505050565b5b818110156106685761065d600082610631565b60018101905061064a565b5050565b601f8211156106ad5761067e8161054d565b61068784610562565b81016020851015610696578190505b6106aa6106a285610562565b830182610649565b50505b505050565b600082821c905092915050565b60006106d0600019846008026106b2565b1980831691505092915050565b60006106e983836106bf565b9150826002028217905092915050565b61070282610218565b67ffffffffffffffff81111561071b5761071a610337565b5b610725825461051c565b61073082828561066c565b600060209050601f8311600181146107635760008415610751578287015190505b61075b85826106dd565b8655506107c3565b601f1984166107718661054d565b60005b8281101561079957848901518255600182019150602085019450602081019050610774565b868310156107b657848901516107b2601f8916826106bf565b8355505b6001600288020188555050505b50505050505056fea2646970667358221220eea388078e63f1bca0bb5db65d5479de50ddfd99bb0fd50e234e06c0d035257764736f6c63430008120033",
					"opcodes": "PUSH1 0x80 PUSH1 0x40 MSTORE CALLVALUE DUP1 ISZERO PUSH3 0x11 JUMPI PUSH1 0x0 DUP1 REVERT JUMPDEST POP PUSH1 0x40 MLOAD PUSH3 0xE14 CODESIZE SUB DUP1 PUSH3 0xE14 DUP4 CODECOPY DUP2 DUP2 ADD PUSH1 0x40 MSTORE DUP2 ADD SWAP1 PUSH3 0x37 SWAP2 SWAP1 PUSH3 0x241 JUMP JUMPDEST DUP3 PUSH1 0x0 DUP1 ADD DUP2 SWAP1 SSTORE POP DUP2 PUSH1 0x0 PUSH1 0x1 ADD SWAP1 DUP2 PUSH3 0x54 SWAP2 SWAP1 PUSH3 0x51C JUMP JUMPDEST POP DUP1 PUSH1 0x0 PUSH1 0x2 ADD SWAP1 DUP2 PUSH3 0x69 SWAP2 SWAP1 PUSH3 0x51C JUMP JUMPDEST POP POP POP POP PUSH3 0x603 JUMP JUMPDEST PUSH1 0x0 PUSH1 0x40 MLOAD SWAP1 POP SWAP1 JUMP JUMPDEST PUSH1 0x0 DUP1 REVERT JUMPDEST PUSH1 0x0 DUP1 REVERT JUMPDEST PUSH1 0x0 DUP2 SWAP1 POP SWAP2 SWAP1 POP JUMP JUMPDEST PUSH3 0x9C DUP2 PUSH3 0x87 JUMP JUMPDEST DUP2 EQ PUSH3 0xA8 JUMPI PUSH1 0x0 DUP1 REVERT JUMPDEST POP JUMP JUMPDEST PUSH1 0x0 DUP2 MLOAD SWAP1 POP PUSH3 0xBC DUP2 PUSH3 0x91 JUMP JUMPDEST SWAP3 SWAP2 POP POP JUMP JUMPDEST PUSH1 0x0 DUP1 REVERT JUMPDEST PUSH1 0x0 DUP1 REVERT JUMPDEST PUSH1 0x0 PUSH1 0x1F NOT PUSH1 0x1F DUP4 ADD AND SWAP1 POP SWAP2 SWAP1 POP JUMP JUMPDEST PUSH32 0x4E487B7100000000000000000000000000000000000000000000000000000000 PUSH1 0x0 MSTORE PUSH1 0x41 PUSH1 0x4 MSTORE PUSH1 0x24 PUSH1 0x0 REVERT JUMPDEST PUSH3 0x117 DUP3 PUSH3 0xCC JUMP JUMPDEST DUP2 ADD DUP2 DUP2 LT PUSH8 0xFFFFFFFFFFFFFFFF DUP3 GT OR ISZERO PUSH3 0x139 JUMPI PUSH3 0x138 PUSH3 0xDD JUMP JUMPDEST JUMPDEST DUP1 PUSH1 0x40 MSTORE POP POP POP JUMP JUMPDEST PUSH1 0x0 PUSH3 0x14E PUSH3 0x73 JUMP JUMPDEST SWAP1 POP PUSH3 0x15C DUP3 DUP3 PUSH3 0x10C JUMP JUMPDEST SWAP2 SWAP1 POP JUMP JUMPDEST PUSH1 0x0 PUSH8 0xFFFFFFFFFFFFFFFF DUP3 GT ISZERO PUSH3 0x17F JUMPI PUSH3 0x17E PUSH3 0xDD JUMP JUMPDEST JUMPDEST PUSH3 0x18A DUP3 PUSH3 0xCC JUMP JUMPDEST SWAP1 POP PUSH1 0x20 DUP2 ADD SWAP1 POP SWAP2 SWAP1 POP JUMP JUMPDEST PUSH1 0x0 JUMPDEST DUP4 DUP2 LT ISZERO PUSH3 0x1B7 JUMPI DUP1 DUP3 ADD MLOAD DUP2 DUP5 ADD MSTORE PUSH1 0x20 DUP2 ADD SWAP1 POP PUSH3 0x19A JUMP JUMPDEST PUSH1 0x0 DUP5 DUP5 ADD MSTORE POP POP POP POP JUMP JUMPDEST PUSH1 0x0 PUSH3 0x1DA PUSH3 0x1D4 DUP5 PUSH3 0x161 JUMP JUMPDEST PUSH3 0x142 JUMP JUMPDEST SWAP1 POP DUP3 DUP2 MSTORE PUSH1 0x20 DUP2 ADD DUP5 DUP5 DUP5 ADD GT ISZERO PUSH3 0x1F9 JUMPI PUSH3 0x1F8 PUSH3 0xC7 JUMP JUMPDEST JUMPDEST PUSH3 0x206 DUP5 DUP3 DUP6 PUSH3 0x197 JUMP JUMPDEST POP SWAP4 SWAP3 POP POP POP JUMP JUMPDEST PUSH1 0x0 DUP3 PUSH1 0x1F DUP4 ADD SLT PUSH3 0x226 JUMPI PUSH3 0x225 PUSH3 0xC2 JUMP JUMPDEST JUMPDEST DUP2 MLOAD PUSH3 0x238 DUP5 DUP3 PUSH1 0x20 DUP7 ADD PUSH3 0x1C3 JUMP JUMPDEST SWAP2 POP POP SWAP3 SWAP2 POP POP JUMP JUMPDEST PUSH1 0x0 DUP1 PUSH1 0x0 PUSH1 0x60 DUP5 DUP7 SUB SLT ISZERO PUSH3 0x25D JUMPI PUSH3 0x25C PUSH3 0x7D JUMP JUMPDEST JUMPDEST PUSH1 0x0 PUSH3 0x26D DUP7 DUP3 DUP8 ADD PUSH3 0xAB JUMP JUMPDEST SWAP4 POP POP PUSH1 0x20 DUP5 ADD MLOAD PUSH8 0xFFFFFFFFFFFFFFFF DUP2 GT ISZERO PUSH3 0x291 JUMPI PUSH3 0x290 PUSH3 0x82 JUMP JUMPDEST JUMPDEST PUSH3 0x29F DUP7 DUP3 DUP8 ADD PUSH3 0x20E JUMP JUMPDEST SWAP3 POP POP PUSH1 0x40 DUP5 ADD MLOAD PUSH8 0xFFFFFFFFFFFFFFFF DUP2 GT ISZERO PUSH3 0x2C3 JUMPI PUSH3 0x2C2 PUSH3 0x82 JUMP JUMPDEST JUMPDEST PUSH3 0x2D1 DUP7 DUP3 DUP8 ADD PUSH3 0x20E JUMP JUMPDEST SWAP2 POP POP SWAP3 POP SWAP3 POP SWAP3 JUMP JUMPDEST PUSH1 0x0 DUP2 MLOAD SWAP1 POP SWAP2 SWAP1 POP JUMP JUMPDEST PUSH32 0x4E487B7100000000000000000000000000000000000000000000000000000000 PUSH1 0x0 MSTORE PUSH1 0x22 PUSH1 0x4 MSTORE PUSH1 0x24 PUSH1 0x0 REVERT JUMPDEST PUSH1 0x0 PUSH1 0x2 DUP3 DIV SWAP1 POP PUSH1 0x1 DUP3 AND DUP1 PUSH3 0x32E JUMPI PUSH1 0x7F DUP3 AND SWAP2 POP JUMPDEST PUSH1 0x20 DUP3 LT DUP2 SUB PUSH3 0x344 JUMPI PUSH3 0x343 PUSH3 0x2E6 JUMP JUMPDEST JUMPDEST POP SWAP2 SWAP1 POP JUMP JUMPDEST PUSH1 0x0 DUP2 SWAP1 POP DUP2 PUSH1 0x0 MSTORE PUSH1 0x20 PUSH1 0x0 KECCAK256 SWAP1 POP SWAP2 SWAP1 POP JUMP JUMPDEST PUSH1 0x0 PUSH1 0x20 PUSH1 0x1F DUP4 ADD DIV SWAP1 POP SWAP2 SWAP1 POP JUMP JUMPDEST PUSH1 0x0 DUP3 DUP3 SHL SWAP1 POP SWAP3 SWAP2 POP POP JUMP JUMPDEST PUSH1 0x0 PUSH1 0x8 DUP4 MUL PUSH3 0x3AE PUSH32 0xFFFFFFFFFFFFFFFFFFFFFFFFFFFFFFFFFFFFFFFFFFFFFFFFFFFFFFFFFFFFFFFF DUP3 PUSH3 0x36F JUMP JUMPDEST PUSH3 0x3BA DUP7 DUP4 PUSH3 0x36F JUMP JUMPDEST SWAP6 POP DUP1 NOT DUP5 AND SWAP4 POP DUP1 DUP7 AND DUP5 OR SWAP3 POP POP POP SWAP4 SWAP3 POP POP POP JUMP JUMPDEST PUSH1 0x0 DUP2 SWAP1 POP SWAP2 SWAP1 POP JUMP JUMPDEST PUSH1 0x0 PUSH3 0x3FD PUSH3 0x3F7 PUSH3 0x3F1 DUP5 PUSH3 0x87 JUMP JUMPDEST PUSH3 0x3D2 JUMP JUMPDEST PUSH3 0x87 JUMP JUMPDEST SWAP1 POP SWAP2 SWAP1 POP JUMP JUMPDEST PUSH1 0x0 DUP2 SWAP1 POP SWAP2 SWAP1 POP JUMP JUMPDEST PUSH3 0x419 DUP4 PUSH3 0x3DC JUMP JUMPDEST PUSH3 0x431 PUSH3 0x428 DUP3 PUSH3 0x404 JUMP JUMPDEST DUP5 DUP5 SLOAD PUSH3 0x37C JUMP JUMPDEST DUP3 SSTORE POP POP POP POP JUMP JUMPDEST PUSH1 0x0 SWAP1 JUMP JUMPDEST PUSH3 0x448 PUSH3 0x439 JUMP JUMPDEST PUSH3 0x455 DUP2 DUP5 DUP5 PUSH3 0x40E JUMP JUMPDEST POP POP POP JUMP JUMPDEST JUMPDEST DUP2 DUP2 LT ISZERO PUSH3 0x47D JUMPI PUSH3 0x471 PUSH1 0x0 DUP3 PUSH3 0x43E JUMP JUMPDEST PUSH1 0x1 DUP2 ADD SWAP1 POP PUSH3 0x45B JUMP JUMPDEST POP POP JUMP JUMPDEST PUSH1 0x1F DUP3 GT ISZERO PUSH3 0x4CC JUMPI PUSH3 0x496 DUP2 PUSH3 0x34A JUMP JUMPDEST PUSH3 0x4A1 DUP5 PUSH3 0x35F JUMP JUMPDEST DUP2 ADD PUSH1 0x20 DUP6 LT ISZERO PUSH3 0x4B1 JUMPI DUP2 SWAP1 POP JUMPDEST PUSH3 0x4C9 PUSH3 0x4C0 DUP6 PUSH3 0x35F JUMP JUMPDEST DUP4 ADD DUP3 PUSH3 0x45A JUMP JUMPDEST POP POP JUMPDEST POP POP POP JUMP JUMPDEST PUSH1 0x0 DUP3 DUP3 SHR SWAP1 POP SWAP3 SWAP2 POP POP JUMP JUMPDEST PUSH1 0x0 PUSH3 0x4F1 PUSH1 0x0 NOT DUP5 PUSH1 0x8 MUL PUSH3 0x4D1 JUMP JUMPDEST NOT DUP1 DUP4 AND SWAP2 POP POP SWAP3 SWAP2 POP POP JUMP JUMPDEST PUSH1 0x0 PUSH3 0x50C DUP4 DUP4 PUSH3 0x4DE JUMP JUMPDEST SWAP2 POP DUP3 PUSH1 0x2 MUL DUP3 OR SWAP1 POP SWAP3 SWAP2 POP POP JUMP JUMPDEST PUSH3 0x527 DUP3 PUSH3 0x2DB JUMP JUMPDEST PUSH8 0xFFFFFFFFFFFFFFFF DUP2 GT ISZERO PUSH3 0x543 JUMPI PUSH3 0x542 PUSH3 0xDD JUMP JUMPDEST JUMPDEST PUSH3 0x54F DUP3 SLOAD PUSH3 0x315 JUMP JUMPDEST PUSH3 0x55C DUP3 DUP3 DUP6 PUSH3 0x481 JUMP JUMPDEST PUSH1 0x0 PUSH1 0x20 SWAP1 POP PUSH1 0x1F DUP4 GT PUSH1 0x1 DUP2 EQ PUSH3 0x594 JUMPI PUSH1 0x0 DUP5 ISZERO PUSH3 0x57F JUMPI DUP3 DUP8 ADD MLOAD SWAP1 POP JUMPDEST PUSH3 0x58B DUP6 DUP3 PUSH3 0x4FE JUMP JUMPDEST DUP7 SSTORE POP PUSH3 0x5FB JUMP JUMPDEST PUSH1 0x1F NOT DUP5 AND PUSH3 0x5A4 DUP7 PUSH3 0x34A JUMP JUMPDEST PUSH1 0x0 JUMPDEST DUP3 DUP2 LT ISZERO PUSH3 0x5CE JUMPI DUP5 DUP10 ADD MLOAD DUP3 SSTORE PUSH1 0x1 DUP3 ADD SWAP2 POP PUSH1 0x20 DUP6 ADD SWAP5 POP PUSH1 0x20 DUP2 ADD SWAP1 POP PUSH3 0x5A7 JUMP JUMPDEST DUP7 DUP4 LT ISZERO PUSH3 0x5EE JUMPI DUP5 DUP10 ADD MLOAD PUSH3 0x5EA PUSH1 0x1F DUP10 AND DUP3 PUSH3 0x4DE JUMP JUMPDEST DUP4 SSTORE POP JUMPDEST PUSH1 0x1 PUSH1 0x2 DUP9 MUL ADD DUP9 SSTORE POP POP POP JUMPDEST POP POP POP POP POP POP JUMP JUMPDEST PUSH2 0x801 DUP1 PUSH3 0x613 PUSH1 0x0 CODECOPY PUSH1 0x0 RETURN INVALID PUSH1 0x80 PUSH1 0x40 MSTORE CALLVALUE DUP1 ISZERO PUSH2 0x10 JUMPI PUSH1 0x0 DUP1 REVERT JUMPDEST POP PUSH1 0x4 CALLDATASIZE LT PUSH2 0x36 JUMPI PUSH1 0x0 CALLDATALOAD PUSH1 0xE0 SHR DUP1 PUSH4 0xB34FAD41 EQ PUSH2 0x3B JUMPI DUP1 PUSH4 0xC30691F7 EQ PUSH2 0x5B JUMPI JUMPDEST PUSH1 0x0 DUP1 REVERT JUMPDEST PUSH2 0x43 PUSH2 0x77 JUMP JUMPDEST PUSH1 0x40 MLOAD PUSH2 0x52 SWAP4 SWAP3 SWAP2 SWAP1 PUSH2 0x2A8 JUMP JUMPDEST PUSH1 0x40 MLOAD DUP1 SWAP2 SUB SWAP1 RETURN JUMPDEST PUSH2 0x75 PUSH1 0x4 DUP1 CALLDATASIZE SUB DUP2 ADD SWAP1 PUSH2 0x70 SWAP2 SWAP1 PUSH2 0x462 JUMP JUMPDEST PUSH2 0x19F JUMP JUMPDEST STOP JUMPDEST PUSH1 0x0 DUP1 PUSH1 0x0 ADD SLOAD SWAP1 DUP1 PUSH1 0x1 ADD DUP1 SLOAD PUSH2 0x8E SWAP1 PUSH2 0x51C JUMP JUMPDEST DUP1 PUSH1 0x1F ADD PUSH1 0x20 DUP1 SWAP2 DIV MUL PUSH1 0x20 ADD PUSH1 0x40 MLOAD SWAP1 DUP2 ADD PUSH1 0x40 MSTORE DUP1 SWAP3 SWAP2 SWAP1 DUP2 DUP2 MSTORE PUSH1 0x20 ADD DUP3 DUP1 SLOAD PUSH2 0xBA SWAP1 PUSH2 0x51C JUMP JUMPDEST DUP1 ISZERO PUSH2 0x107 JUMPI DUP1 PUSH1 0x1F LT PUSH2 0xDC JUMPI PUSH2 0x100 DUP1 DUP4 SLOAD DIV MUL DUP4 MSTORE SWAP2 PUSH1 0x20 ADD SWAP2 PUSH2 0x107 JUMP JUMPDEST DUP3 ADD SWAP2 SWAP1 PUSH1 0x0 MSTORE PUSH1 0x20 PUSH1 0x0 KECCAK256 SWAP1 JUMPDEST DUP2 SLOAD DUP2 MSTORE SWAP1 PUSH1 0x1 ADD SWAP1 PUSH1 0x20 ADD DUP1 DUP4 GT PUSH2 0xEA JUMPI DUP3 SWAP1 SUB PUSH1 0x1F AND DUP3 ADD SWAP2 JUMPDEST POP POP POP POP POP SWAP1 DUP1 PUSH1 0x2 ADD DUP1 SLOAD PUSH2 0x11C SWAP1 PUSH2 0x51C JUMP JUMPDEST DUP1 PUSH1 0x1F ADD PUSH1 0x20 DUP1 SWAP2 DIV MUL PUSH1 0x20 ADD PUSH1 0x40 MLOAD SWAP1 DUP2 ADD PUSH1 0x40 MSTORE DUP1 SWAP3 SWAP2 SWAP1 DUP2 DUP2 MSTORE PUSH1 0x20 ADD DUP3 DUP1 SLOAD PUSH2 0x148 SWAP1 PUSH2 0x51C JUMP JUMPDEST DUP1 ISZERO PUSH2 0x195 JUMPI DUP1 PUSH1 0x1F LT PUSH2 0x16A JUMPI PUSH2 0x100 DUP1 DUP4 SLOAD DIV MUL DUP4 MSTORE SWAP2 PUSH1 0x20 ADD SWAP2 PUSH2 0x195 JUMP JUMPDEST DUP3 ADD SWAP2 SWAP1 PUSH1 0x0 MSTORE PUSH1 0x20 PUSH1 0x0 KECCAK256 SWAP1 JUMPDEST DUP2 SLOAD DUP2 MSTORE SWAP1 PUSH1 0x1 ADD SWAP1 PUSH1 0x20 ADD DUP1 DUP4 GT PUSH2 0x178 JUMPI DUP3 SWAP1 SUB PUSH1 0x1F AND DUP3 ADD SWAP2 JUMPDEST POP POP POP POP POP SWAP1 POP DUP4 JUMP JUMPDEST PUSH1 0x0 PUSH1 0x40 MLOAD DUP1 PUSH1 0x60 ADD PUSH1 0x40 MSTORE DUP1 DUP6 DUP2 MSTORE PUSH1 0x20 ADD DUP5 DUP2 MSTORE PUSH1 0x20 ADD DUP4 DUP2 MSTORE POP SWAP1 POP DUP1 PUSH1 0x0 DUP1 DUP3 ADD MLOAD DUP2 PUSH1 0x0 ADD SSTORE PUSH1 0x20 DUP3 ADD MLOAD DUP2 PUSH1 0x1 ADD SWAP1 DUP2 PUSH2 0x1DF SWAP2 SWAP1 PUSH2 0x6F9 JUMP JUMPDEST POP PUSH1 0x40 DUP3 ADD MLOAD DUP2 PUSH1 0x2 ADD SWAP1 DUP2 PUSH2 0x1F5 SWAP2 SWAP1 PUSH2 0x6F9 JUMP JUMPDEST POP SWAP1 POP POP POP POP POP POP JUMP JUMPDEST PUSH1 0x0 DUP2 SWAP1 POP SWAP2 SWAP1 POP JUMP JUMPDEST PUSH2 0x212 DUP2 PUSH2 0x1FF JUMP JUMPDEST DUP3 MSTORE POP POP JUMP JUMPDEST PUSH1 0x0 DUP2 MLOAD SWAP1 POP SWAP2 SWAP1 POP JUMP JUMPDEST PUSH1 0x0 DUP3 DUP3 MSTORE PUSH1 0x20 DUP3 ADD SWAP1 POP SWAP3 SWAP2 POP POP JUMP JUMPDEST PUSH1 0x0 JUMPDEST DUP4 DUP2 LT ISZERO PUSH2 0x252 JUMPI DUP1 DUP3 ADD MLOAD DUP2 DUP5 ADD MSTORE PUSH1 0x20 DUP2 ADD SWAP1 POP PUSH2 0x237 JUMP JUMPDEST PUSH1 0x0 DUP5 DUP5 ADD MSTORE POP POP POP POP JUMP JUMPDEST PUSH1 0x0 PUSH1 0x1F NOT PUSH1 0x1F DUP4 ADD AND SWAP1 POP SWAP2 SWAP1 POP JUMP JUMPDEST PUSH1 0x0 PUSH2 0x27A DUP3 PUSH2 0x218 JUMP JUMPDEST PUSH2 0x284 DUP2 DUP6 PUSH2 0x223 JUMP JUMPDEST SWAP4 POP PUSH2 0x294 DUP2 DUP6 PUSH1 0x20 DUP7 ADD PUSH2 0x234 JUMP JUMPDEST PUSH2 0x29D DUP2 PUSH2 0x25E JUMP JUMPDEST DUP5 ADD SWAP2 POP POP SWAP3 SWAP2 POP POP JUMP JUMPDEST PUSH1 0x0 PUSH1 0x60 DUP3 ADD SWAP1 POP PUSH2 0x2BD PUSH1 0x0 DUP4 ADD DUP7 PUSH2 0x209 JUMP JUMPDEST DUP2 DUP2 SUB PUSH1 0x20 DUP4 ADD MSTORE PUSH2 0x2CF DUP2 DUP6 PUSH2 0x26F JUMP JUMPDEST SWAP1 POP DUP2 DUP2 SUB PUSH1 0x40 DUP4 ADD MSTORE PUSH2 0x2E3 DUP2 DUP5 PUSH2 0x26F JUMP JUMPDEST SWAP1 POP SWAP5 SWAP4 POP POP POP POP JUMP JUMPDEST PUSH1 0x0 PUSH1 0x40 MLOAD SWAP1 POP SWAP1 JUMP JUMPDEST PUSH1 0x0 DUP1 REVERT JUMPDEST PUSH1 0x0 DUP1 REVERT JUMPDEST PUSH2 0x30A DUP2 PUSH2 0x1FF JUMP JUMPDEST DUP2 EQ PUSH2 0x315 JUMPI PUSH1 0x0 DUP1 REVERT JUMPDEST POP JUMP JUMPDEST PUSH1 0x0 DUP2 CALLDATALOAD SWAP1 POP PUSH2 0x327 DUP2 PUSH2 0x301 JUMP JUMPDEST SWAP3 SWAP2 POP POP JUMP JUMPDEST PUSH1 0x0 DUP1 REVERT JUMPDEST PUSH1 0x0 DUP1 REVERT JUMPDEST PUSH32 0x4E487B7100000000000000000000000000000000000000000000000000000000 PUSH1 0x0 MSTORE PUSH1 0x41 PUSH1 0x4 MSTORE PUSH1 0x24 PUSH1 0x0 REVERT JUMPDEST PUSH2 0x36F DUP3 PUSH2 0x25E JUMP JUMPDEST DUP2 ADD DUP2 DUP2 LT PUSH8 0xFFFFFFFFFFFFFFFF DUP3 GT OR ISZERO PUSH2 0x38E JUMPI PUSH2 0x38D PUSH2 0x337 JUMP JUMPDEST JUMPDEST DUP1 PUSH1 0x40 MSTORE POP POP POP JUMP JUMPDEST PUSH1 0x0 PUSH2 0x3A1 PUSH2 0x2ED JUMP JUMPDEST SWAP1 POP PUSH2 0x3AD DUP3 DUP3 PUSH2 0x366 JUMP JUMPDEST SWAP2 SWAP1 POP JUMP JUMPDEST PUSH1 0x0 PUSH8 0xFFFFFFFFFFFFFFFF DUP3 GT ISZERO PUSH2 0x3CD JUMPI PUSH2 0x3CC PUSH2 0x337 JUMP JUMPDEST JUMPDEST PUSH2 0x3D6 DUP3 PUSH2 0x25E JUMP JUMPDEST SWAP1 POP PUSH1 0x20 DUP2 ADD SWAP1 POP SWAP2 SWAP1 POP JUMP JUMPDEST DUP3 DUP2 DUP4 CALLDATACOPY PUSH1 0x0 DUP4 DUP4 ADD MSTORE POP POP POP JUMP JUMPDEST PUSH1 0x0 PUSH2 0x405 PUSH2 0x400 DUP5 PUSH2 0x3B2 JUMP JUMPDEST PUSH2 0x397 JUMP JUMPDEST SWAP1 POP DUP3 DUP2 MSTORE PUSH1 0x20 DUP2 ADD DUP5 DUP5 DUP5 ADD GT ISZERO PUSH2 0x421 JUMPI PUSH2 0x420 PUSH2 0x332 JUMP JUMPDEST JUMPDEST PUSH2 0x42C DUP5 DUP3 DUP6 PUSH2 0x3E3 JUMP JUMPDEST POP SWAP4 SWAP3 POP POP POP JUMP JUMPDEST PUSH1 0x0 DUP3 PUSH1 0x1F DUP4 ADD SLT PUSH2 0x449 JUMPI PUSH2 0x448 PUSH2 0x32D JUMP JUMPDEST JUMPDEST DUP2 CALLDATALOAD PUSH2 0x459 DUP5 DUP3 PUSH1 0x20 DUP7 ADD PUSH2 0x3F2 JUMP JUMPDEST SWAP2 POP POP SWAP3 SWAP2 POP POP JUMP JUMPDEST PUSH1 0x0 DUP1 PUSH1 0x0 PUSH1 0x60 DUP5 DUP7 SUB SLT ISZERO PUSH2 0x47B JUMPI PUSH2 0x47A PUSH2 0x2F7 JUMP JUMPDEST JUMPDEST PUSH1 0x0 PUSH2 0x489 DUP7 DUP3 DUP8 ADD PUSH2 0x318 JUMP JUMPDEST SWAP4 POP POP PUSH1 0x20 DUP5 ADD CALLDATALOAD PUSH8 0xFFFFFFFFFFFFFFFF DUP2 GT ISZERO PUSH2 0x4AA JUMPI PUSH2 0x4A9 PUSH2 0x2FC JUMP JUMPDEST JUMPDEST PUSH2 0x4B6 DUP7 DUP3 DUP8 ADD PUSH2 0x434 JUMP JUMPDEST SWAP3 POP POP PUSH1 0x40 DUP5 ADD CALLDATALOAD PUSH8 0xFFFFFFFFFFFFFFFF DUP2 GT ISZERO PUSH2 0x4D7 JUMPI PUSH2 0x4D6 PUSH2 0x2FC JUMP JUMPDEST JUMPDEST PUSH2 0x4E3 DUP7 DUP3 DUP8 ADD PUSH2 0x434 JUMP JUMPDEST SWAP2 POP POP SWAP3 POP SWAP3 POP SWAP3 JUMP JUMPDEST PUSH32 0x4E487B7100000000000000000000000000000000000000000000000000000000 PUSH1 0x0 MSTORE PUSH1 0x22 PUSH1 0x4 MSTORE PUSH1 0x24 PUSH1 0x0 REVERT JUMPDEST PUSH1 0x0 PUSH1 0x2 DUP3 DIV SWAP1 POP PUSH1 0x1 DUP3 AND DUP1 PUSH2 0x534 JUMPI PUSH1 0x7F DUP3 AND SWAP2 POP JUMPDEST PUSH1 0x20 DUP3 LT DUP2 SUB PUSH2 0x547 JUMPI PUSH2 0x546 PUSH2 0x4ED JUMP JUMPDEST JUMPDEST POP SWAP2 SWAP1 POP JUMP JUMPDEST PUSH1 0x0 DUP2 SWAP1 POP DUP2 PUSH1 0x0 MSTORE PUSH1 0x20 PUSH1 0x0 KECCAK256 SWAP1 POP SWAP2 SWAP1 POP JUMP JUMPDEST PUSH1 0x0 PUSH1 0x20 PUSH1 0x1F DUP4 ADD DIV SWAP1 POP SWAP2 SWAP1 POP JUMP JUMPDEST PUSH1 0x0 DUP3 DUP3 SHL SWAP1 POP SWAP3 SWAP2 POP POP JUMP JUMPDEST PUSH1 0x0 PUSH1 0x8 DUP4 MUL PUSH2 0x5AF PUSH32 0xFFFFFFFFFFFFFFFFFFFFFFFFFFFFFFFFFFFFFFFFFFFFFFFFFFFFFFFFFFFFFFFF DUP3 PUSH2 0x572 JUMP JUMPDEST PUSH2 0x5B9 DUP7 DUP4 PUSH2 0x572 JUMP JUMPDEST SWAP6 POP DUP1 NOT DUP5 AND SWAP4 POP DUP1 DUP7 AND DUP5 OR SWAP3 POP POP POP SWAP4 SWAP3 POP POP POP JUMP JUMPDEST PUSH1 0x0 DUP2 SWAP1 POP SWAP2 SWAP1 POP JUMP JUMPDEST PUSH1 0x0 PUSH2 0x5F6 PUSH2 0x5F1 PUSH2 0x5EC DUP5 PUSH2 0x1FF JUMP JUMPDEST PUSH2 0x5D1 JUMP JUMPDEST PUSH2 0x1FF JUMP JUMPDEST SWAP1 POP SWAP2 SWAP1 POP JUMP JUMPDEST PUSH1 0x0 DUP2 SWAP1 POP SWAP2 SWAP1 POP JUMP JUMPDEST PUSH2 0x610 DUP4 PUSH2 0x5DB JUMP JUMPDEST PUSH2 0x624 PUSH2 0x61C DUP3 PUSH2 0x5FD JUMP JUMPDEST DUP5 DUP5 SLOAD PUSH2 0x57F JUMP JUMPDEST DUP3 SSTORE POP POP POP POP JUMP JUMPDEST PUSH1 0x0 SWAP1 JUMP JUMPDEST PUSH2 0x639 PUSH2 0x62C JUMP JUMPDEST PUSH2 0x644 DUP2 DUP5 DUP5 PUSH2 0x607 JUMP JUMPDEST POP POP POP JUMP JUMPDEST JUMPDEST DUP2 DUP2 LT ISZERO PUSH2 0x668 JUMPI PUSH2 0x65D PUSH1 0x0 DUP3 PUSH2 0x631 JUMP JUMPDEST PUSH1 0x1 DUP2 ADD SWAP1 POP PUSH2 0x64A JUMP JUMPDEST POP POP JUMP JUMPDEST PUSH1 0x1F DUP3 GT ISZERO PUSH2 0x6AD JUMPI PUSH2 0x67E DUP2 PUSH2 0x54D JUMP JUMPDEST PUSH2 0x687 DUP5 PUSH2 0x562 JUMP JUMPDEST DUP2 ADD PUSH1 0x20 DUP6 LT ISZERO PUSH2 0x696 JUMPI DUP2 SWAP1 POP JUMPDEST PUSH2 0x6AA PUSH2 0x6A2 DUP6 PUSH2 0x562 JUMP JUMPDEST DUP4 ADD DUP3 PUSH2 0x649 JUMP JUMPDEST POP POP JUMPDEST POP POP POP JUMP JUMPDEST PUSH1 0x0 DUP3 DUP3 SHR SWAP1 POP SWAP3 SWAP2 POP POP JUMP JUMPDEST PUSH1 0x0 PUSH2 0x6D0 PUSH1 0x0 NOT DUP5 PUSH1 0x8 MUL PUSH2 0x6B2 JUMP JUMPDEST NOT DUP1 DUP4 AND SWAP2 POP POP SWAP3 SWAP2 POP POP JUMP JUMPDEST PUSH1 0x0 PUSH2 0x6E9 DUP4 DUP4 PUSH2 0x6BF JUMP JUMPDEST SWAP2 POP DUP3 PUSH1 0x2 MUL DUP3 OR SWAP1 POP SWAP3 SWAP2 POP POP JUMP JUMPDEST PUSH2 0x702 DUP3 PUSH2 0x218 JUMP JUMPDEST PUSH8 0xFFFFFFFFFFFFFFFF DUP2 GT ISZERO PUSH2 0x71B JUMPI PUSH2 0x71A PUSH2 0x337 JUMP JUMPDEST JUMPDEST PUSH2 0x725 DUP3 SLOAD PUSH2 0x51C JUMP JUMPDEST PUSH2 0x730 DUP3 DUP3 DUP6 PUSH2 0x66C JUMP JUMPDEST PUSH1 0x0 PUSH1 0x20 SWAP1 POP PUSH1 0x1F DUP4 GT PUSH1 0x1 DUP2 EQ PUSH2 0x763 JUMPI PUSH1 0x0 DUP5 ISZERO PUSH2 0x751 JUMPI DUP3 DUP8 ADD MLOAD SWAP1 POP JUMPDEST PUSH2 0x75B DUP6 DUP3 PUSH2 0x6DD JUMP JUMPDEST DUP7 SSTORE POP PUSH2 0x7C3 JUMP JUMPDEST PUSH1 0x1F NOT DUP5 AND PUSH2 0x771 DUP7 PUSH2 0x54D JUMP JUMPDEST PUSH1 0x0 JUMPDEST DUP3 DUP2 LT ISZERO PUSH2 0x799 JUMPI DUP5 DUP10 ADD MLOAD DUP3 SSTORE PUSH1 0x1 DUP3 ADD SWAP2 POP PUSH1 0x20 DUP6 ADD SWAP5 POP PUSH1 0x20 DUP2 ADD SWAP1 POP PUSH2 0x774 JUMP JUMPDEST DUP7 DUP4 LT ISZERO PUSH2 0x7B6 JUMPI DUP5 DUP10 ADD MLOAD PUSH2 0x7B2 PUSH1 0x1F DUP10 AND DUP3 PUSH2 0x6BF JUMP JUMPDEST DUP4 SSTORE POP JUMPDEST PUSH1 0x1 PUSH1 0x2 DUP9 MUL ADD DUP9 SSTORE POP POP POP JUMPDEST POP POP POP POP POP POP JUMP INVALID LOG2 PUSH5 0x6970667358 0x22 SLT KECCAK256 0xEE LOG3 DUP9 SMOD DUP15 PUSH4 0xF1BCA0BB 0x5D 0xB6 0x5D SLOAD PUSH26 0xDE50DDFD99BB0FD50E234E06C0D035257764736F6C6343000812 STOP CALLER "
				},
				"gasEstimates": {
					"creation": {
						"codeDepositCost": "409800",
						"executionCost": "infinite",
						"totalCost": "infinite"
					},
					"external": {
						"emp()": "infinite",
						"setEmployee(uint256,string,string)": "infinite"
					}
				},
				"methodIdentifiers": {
					"emp()": "b34fad41",
					"setEmployee(uint256,string,string)": "c30691f7"
				}
			},
			"storageLayout": {
				"storage": [
					{
						"astId": 11,
						"contract": "step_11_Struct/Struct.sol:Employees",
						"label": "emp",
						"offset": 0,
						"slot": "0",
						"type": "t_struct(Employee)8_storage"
					}
				],
				"types": {
					"t_string_storage": {
						"encoding": "bytes",
						"label": "string",
						"numberOfBytes": "32"
					},
					"t_struct(Employee)8_storage": {
						"encoding": "inplace",
						"label": "struct Employee",
						"members": [
							{
								"astId": 3,
								"contract": "step_11_Struct/Struct.sol:Employees",
								"label": "id",
								"offset": 0,
								"slot": "0",
								"type": "t_uint256"
							},
							{
								"astId": 5,
								"contract": "step_11_Struct/Struct.sol:Employees",
								"label": "name",
								"offset": 0,
								"slot": "1",
								"type": "t_string_storage"
							},
							{
								"astId": 7,
								"contract": "step_11_Struct/Struct.sol:Employees",
								"label": "gender",
								"offset": 0,
								"slot": "2",
								"type": "t_string_storage"
							}
						],
						"numberOfBytes": "96"
					},
					"t_uint256": {
						"encoding": "inplace",
						"label": "uint256",
						"numberOfBytes": "32"
					}
				}
			},
			"userdoc": {
				"kind": "user",
				"methods": {},
				"version": 1
			}
		}
	}
}