{
	"data": {
		"bytecode": {
			"linkReferences": {},
			"object": "60806040526040518060400160405280600a60ff168152602001600560ff168152506000906002610031929190610044565b5034801561003e57600080fd5b506100b3565b828054828255906000526020600020908101928215610085579160200282015b82811115610084578251829060ff16905591602001919060010190610064565b5b5090506100929190610096565b5090565b5b808211156100af576000816000905550600101610097565b5090565b610242806100c26000396000f3fe608060405234801561001057600080fd5b506004361061004c5760003560e01c806371e5ee5f14610051578063a9b66f5e14610081578063e554482e1461008b578063f5d9612d146100a9575b600080fd5b61006b60048036038101906100669190610186565b6100c5565b60405161007891906101c2565b60405180910390f35b6100896100e9565b005b610093610113565b6040516100a091906101c2565b60405180910390f35b6100c360048036038101906100be9190610186565b61011f565b005b600081815481106100d557600080fd5b906000526020600020016000915090505481565b60008054806100fb576100fa6101dd565b5b60019003818190600052602060002001600090559055565b60008080549050905090565b600081908060018154018082558091505060019003906000526020600020016000909190919091505550565b600080fd5b6000819050919050565b61016381610150565b811461016e57600080fd5b50565b6000813590506101808161015a565b92915050565b60006020828403121561019c5761019b61014b565b5b60006101aa84828501610171565b91505092915050565b6101bc81610150565b82525050565b60006020820190506101d760008301846101b3565b92915050565b7f4e487b7100000000000000000000000000000000000000000000000000000000600052603160045260246000fdfea2646970667358221220b21f4ead5281e9dd62ca4ed32aa0ba4ae379c310fa1111c04d5ab90fc57985dd64736f6c63430008120033",
			"opcodes": "PUSH1 0x80 PUSH1 0x40 MSTORE PUSH1 0x40 MLOAD DUP1 PUSH1 0x40 ADD PUSH1 0x40 MSTORE DUP1 PUSH1 0xA PUSH1 0xFF AND DUP2 MSTORE PUSH1 0x20 ADD PUSH1 0x5 PUSH1 0xFF AND DUP2 MSTORE POP PUSH1 0x0 SWAP1 PUSH1 0x2 PUSH2 0x31 SWAP3 SWAP2 SWAP1 PUSH2 0x44 JUMP JUMPDEST POP CALLVALUE DUP1 ISZERO PUSH2 0x3E JUMPI PUSH1 0x0 DUP1 REVERT JUMPDEST POP PUSH2 0xB3 JUMP JUMPDEST DUP3 DUP1 SLOAD DUP3 DUP3 SSTORE SWAP1 PUSH1 0x0 MSTORE PUSH1 0x20 PUSH1 0x0 KECCAK256 SWAP1 DUP2 ADD SWAP3 DUP3 ISZERO PUSH2 0x85 JUMPI SWAP2 PUSH1 0x20 MUL DUP3 ADD JUMPDEST DUP3 DUP2 GT ISZERO PUSH2 0x84 JUMPI DUP3 MLOAD DUP3 SWAP1 PUSH1 0xFF AND SWAP1 SSTORE SWAP2 PUSH1 0x20 ADD SWAP2 SWAP1 PUSH1 0x1 ADD SWAP1 PUSH2 0x64 JUMP JUMPDEST JUMPDEST POP SWAP1 POP PUSH2 0x92 SWAP2 SWAP1 PUSH2 0x96 JUMP JUMPDEST POP SWAP1 JUMP JUMPDEST JUMPDEST DUP1 DUP3 GT ISZERO PUSH2 0xAF JUMPI PUSH1 0x0 DUP2 PUSH1 0x0 SWAP1 SSTORE POP PUSH1 0x1 ADD PUSH2 0x97 JUMP JUMPDEST POP SWAP1 JUMP JUMPDEST PUSH2 0x242 DUP1 PUSH2 0xC2 PUSH1 0x0 CODECOPY PUSH1 0x0 RETURN INVALID PUSH1 0x80 PUSH1 0x40 MSTORE CALLVALUE DUP1 ISZERO PUSH2 0x10 JUMPI PUSH1 0x0 DUP1 REVERT JUMPDEST POP PUSH1 0x4 CALLDATASIZE LT PUSH2 0x4C JUMPI PUSH1 0x0 CALLDATALOAD PUSH1 0xE0 SHR DUP1 PUSH4 0x71E5EE5F EQ PUSH2 0x51 JUMPI DUP1 PUSH4 0xA9B66F5E EQ PUSH2 0x81 JUMPI DUP1 PUSH4 0xE554482E EQ PUSH2 0x8B JUMPI DUP1 PUSH4 0xF5D9612D EQ PUSH2 0xA9 JUMPI JUMPDEST PUSH1 0x0 DUP1 REVERT JUMPDEST PUSH2 0x6B PUSH1 0x4 DUP1 CALLDATASIZE SUB DUP2 ADD SWAP1 PUSH2 0x66 SWAP2 SWAP1 PUSH2 0x186 JUMP JUMPDEST PUSH2 0xC5 JUMP JUMPDEST PUSH1 0x40 MLOAD PUSH2 0x78 SWAP2 SWAP1 PUSH2 0x1C2 JUMP JUMPDEST PUSH1 0x40 MLOAD DUP1 SWAP2 SUB SWAP1 RETURN JUMPDEST PUSH2 0x89 PUSH2 0xE9 JUMP JUMPDEST STOP JUMPDEST PUSH2 0x93 PUSH2 0x113 JUMP JUMPDEST PUSH1 0x40 MLOAD PUSH2 0xA0 SWAP2 SWAP1 PUSH2 0x1C2 JUMP JUMPDEST PUSH1 0x40 MLOAD DUP1 SWAP2 SUB SWAP1 RETURN JUMPDEST PUSH2 0xC3 PUSH1 0x4 DUP1 CALLDATASIZE SUB DUP2 ADD SWAP1 PUSH2 0xBE SWAP2 SWAP1 PUSH2 0x186 JUMP JUMPDEST PUSH2 0x11F JUMP JUMPDEST STOP JUMPDEST PUSH1 0x0 DUP2 DUP2 SLOAD DUP2 LT PUSH2 0xD5 JUMPI PUSH1 0x0 DUP1 REVERT JUMPDEST SWAP1 PUSH1 0x0 MSTORE PUSH1 0x20 PUSH1 0x0 KECCAK256 ADD PUSH1 0x0 SWAP2 POP SWAP1 POP SLOAD DUP2 JUMP JUMPDEST PUSH1 0x0 DUP1 SLOAD DUP1 PUSH2 0xFB JUMPI PUSH2 0xFA PUSH2 0x1DD JUMP JUMPDEST JUMPDEST PUSH1 0x1 SWAP1 SUB DUP2 DUP2 SWAP1 PUSH1 0x0 MSTORE PUSH1 0x20 PUSH1 0x0 KECCAK256 ADD PUSH1 0x0 SWAP1 SSTORE SWAP1 SSTORE JUMP JUMPDEST PUSH1 0x0 DUP1 DUP1 SLOAD SWAP1 POP SWAP1 POP SWAP1 JUMP JUMPDEST PUSH1 0x0 DUP2 SWAP1 DUP1 PUSH1 0x1 DUP2 SLOAD ADD DUP1 DUP3 SSTORE DUP1 SWAP2 POP POP PUSH1 0x1 SWAP1 SUB SWAP1 PUSH1 0x0 MSTORE PUSH1 0x20 PUSH1 0x0 KECCAK256 ADD PUSH1 0x0 SWAP1 SWAP2 SWAP1 SWAP2 SWAP1 SWAP2 POP SSTORE POP JUMP JUMPDEST PUSH1 0x0 DUP1 REVERT JUMPDEST PUSH1 0x0 DUP2 SWAP1 POP SWAP2 SWAP1 POP JUMP JUMPDEST PUSH2 0x163 DUP2 PUSH2 0x150 JUMP JUMPDEST DUP2 EQ PUSH2 0x16E JUMPI PUSH1 0x0 DUP1 REVERT JUMPDEST POP JUMP JUMPDEST PUSH1 0x0 DUP2 CALLDATALOAD SWAP1 POP PUSH2 0x180 DUP2 PUSH2 0x15A JUMP JUMPDEST SWAP3 SWAP2 POP POP JUMP JUMPDEST PUSH1 0x0 PUSH1 0x20 DUP3 DUP5 SUB SLT ISZERO PUSH2 0x19C JUMPI PUSH2 0x19B PUSH2 0x14B JUMP JUMPDEST JUMPDEST PUSH1 0x0 PUSH2 0x1AA DUP5 DUP3 DUP6 ADD PUSH2 0x171 JUMP JUMPDEST SWAP2 POP POP SWAP3 SWAP2 POP POP JUMP JUMPDEST PUSH2 0x1BC DUP2 PUSH2 0x150 JUMP JUMPDEST DUP3 MSTORE POP POP JUMP JUMPDEST PUSH1 0x0 PUSH1 0x20 DUP3 ADD SWAP1 POP PUSH2 0x1D7 PUSH1 0x0 DUP4 ADD DUP5 PUSH2 0x1B3 JUMP JUMPDEST SWAP3 SWAP2 POP POP JUMP JUMPDEST PUSH32 0x4E487B7100000000000000000000000000000000000000000000000000000000 PUSH1 0x0 MSTORE PUSH1 0x31 PUSH1 0x4 MSTORE PUSH1 0x24 PUSH1 0x0 REVERT INVALID LOG2 PUSH5 0x6970667358 0x22 SLT KECCAK256 0xB2 0x1F 0x4E 0xAD MSTORE DUP2 0xE9 0xDD PUSH3 0xCA4ED3 0x2A LOG0 0xBA 0x4A 0xE3 PUSH26 0xC310FA1111C04D5AB90FC57985DD64736F6C6343000812003300 "
		},
		"gasEstimates": {
			"creation": {
				"codeDepositCost": "115600",
				"executionCost": "infinite",
				"totalCost": "infinite"
			},
			"external": {
				"addElement(uint256)": "46873",
				"arr(uint256)": "infinite",
				"arrayLength()": "2467",
				"removeElement()": "29445"
			}
		},
		"methodIdentifiers": {
			"addElement(uint256)": "f5d9612d",
			"arr(uint256)": "71e5ee5f",
			"arrayLength()": "e554482e",
			"removeElement()": "a9b66f5e"
		}
	},
	"abi": [
		{
			"inputs": [
				{
					"internalType": "uint256",
					"name": "value",
					"type": "uint256"
				}
			],
			"name": "addElement",
			"outputs": [],
			"stateMutability": "nonpayable",
			"type": "function"
		},
		{
			"inputs": [
				{
					"internalType": "uint256",
					"name": "",
					"type": "uint256"
				}
			],
			"name": "arr",
			"outputs": [
				{
					"internalType": "uint256",
					"name": "",
					"type": "uint256"
				}
			],
			"stateMutability": "view",
			"type": "function"
		},
		{
			"inputs": [],
			"name": "arrayLength",
			"outputs": [
				{
					"internalType": "uint256",
					"name": "",
					"type": "uint256"
				}
			],
			"stateMutability": "view",
			"type": "function"
		},
		{
			"inputs": [],
			"name": "removeElement",
			"outputs": [],
			"stateMutability": "nonpayable",
			"type": "function"
		}
	]
}